{
  "_format": "hh-sol-artifact-1",
  "contractName": "KKDEV",
  "sourceName": "contracts/kkdevApp.sol",
  "abi": [
    {
      "inputs": [
        {
          "internalType": "address",
          "name": "ownerAddress",
          "type": "address"
        }
      ],
      "stateMutability": "nonpayable",
      "type": "constructor"
    },
    {
      "inputs": [
        {
          "internalType": "uint256",
          "name": "productId",
          "type": "uint256"
        },
        {
          "internalType": "string",
          "name": "imageURL",
          "type": "string"
        }
      ],
      "name": "addImageToProduct",
      "outputs": [
        {
          "components": [
            {
              "internalType": "address",
              "name": "sellerAddress",
              "type": "address"
            },
            {
              "internalType": "string",
              "name": "productName",
              "type": "string"
            },
            {
              "internalType": "uint256",
              "name": "productQuantity",
              "type": "uint256"
            },
            {
              "internalType": "string",
              "name": "productDescription",
              "type": "string"
            },
            {
              "internalType": "uint256",
              "name": "productPrice",
              "type": "uint256"
            },
            {
              "internalType": "string[]",
              "name": "images",
              "type": "string[]"
            }
          ],
          "internalType": "struct KKDEV.Product",
          "name": "updatedProduct",
          "type": "tuple"
        }
      ],
      "stateMutability": "nonpayable",
      "type": "function"
    },
    {
      "inputs": [
        {
          "internalType": "address",
          "name": "userAccAddress",
          "type": "address"
        },
        {
          "internalType": "string",
          "name": "productName",
          "type": "string"
        },
        {
          "internalType": "uint256",
          "name": "productQuantity",
          "type": "uint256"
        },
        {
          "internalType": "string",
          "name": "productDesc",
          "type": "string"
        },
        {
          "internalType": "string",
          "name": "imageURL",
          "type": "string"
        },
        {
          "internalType": "uint256",
          "name": "productPrice",
          "type": "uint256"
        }
      ],
      "name": "addProductToShop",
      "outputs": [
        {
          "internalType": "uint256",
          "name": "prodId",
          "type": "uint256"
        }
      ],
      "stateMutability": "nonpayable",
      "type": "function"
    },
    {
      "inputs": [],
      "name": "contractOwner",
      "outputs": [
        {
          "internalType": "address",
          "name": "",
          "type": "address"
        }
      ],
      "stateMutability": "view",
      "type": "function"
    },
    {
      "inputs": [
        {
          "internalType": "address",
          "name": "sellerEthAccountAddress",
          "type": "address"
        },
        {
          "internalType": "string",
          "name": "shopName",
          "type": "string"
        },
        {
          "internalType": "string",
          "name": "shopPassword",
          "type": "string"
        },
        {
          "internalType": "string",
          "name": "iconURL",
          "type": "string"
        }
      ],
      "name": "createShop",
      "outputs": [
        {
          "internalType": "uint256",
          "name": "shopId",
          "type": "uint256"
        },
        {
          "internalType": "string",
          "name": "message",
          "type": "string"
        }
      ],
      "stateMutability": "nonpayable",
      "type": "function"
    },
    {
      "inputs": [
        {
          "internalType": "address",
          "name": "buyerAddress",
          "type": "address"
        }
      ],
      "name": "deleteBuyer",
      "outputs": [
        {
          "internalType": "address",
          "name": "deletedAddress",
          "type": "address"
        }
      ],
      "stateMutability": "nonpayable",
      "type": "function"
    },
    {
      "inputs": [
        {
          "internalType": "address",
          "name": "sellerAddress",
          "type": "address"
        }
      ],
      "name": "deleteSeller",
      "outputs": [
        {
          "internalType": "address",
          "name": "deletedAddress",
          "type": "address"
        }
      ],
      "stateMutability": "nonpayable",
      "type": "function"
    },
    {
      "inputs": [
        {
          "internalType": "address",
          "name": "_buyerAddress",
          "type": "address"
        }
      ],
      "name": "getAllBuyerOrders",
      "outputs": [
        {
          "components": [
            {
              "internalType": "address",
              "name": "buyerAddress",
              "type": "address"
            },
            {
              "internalType": "address",
              "name": "sellerAddress",
              "type": "address"
            },
            {
              "internalType": "uint256",
              "name": "totalAmountPaid",
              "type": "uint256"
            },
            {
              "internalType": "uint256",
              "name": "orderId",
              "type": "uint256"
            },
            {
              "internalType": "string",
              "name": "transactionStatus",
              "type": "string"
            },
            {
              "internalType": "uint256",
              "name": "dateCreated",
              "type": "uint256"
            }
          ],
          "internalType": "struct KKDEV.OrderDetails[]",
          "name": "",
          "type": "tuple[]"
        }
      ],
      "stateMutability": "view",
      "type": "function"
    },
    {
      "inputs": [
        {
          "internalType": "address",
          "name": "_sellerAddress",
          "type": "address"
        }
      ],
      "name": "getAllSellerOrders",
      "outputs": [
        {
          "components": [
            {
              "internalType": "address",
              "name": "buyerAddress",
              "type": "address"
            },
            {
              "internalType": "address",
              "name": "sellerAddress",
              "type": "address"
            },
            {
              "internalType": "uint256",
              "name": "totalAmountPaid",
              "type": "uint256"
            },
            {
              "internalType": "uint256",
              "name": "orderId",
              "type": "uint256"
            },
            {
              "internalType": "string",
              "name": "transactionStatus",
              "type": "string"
            },
            {
              "internalType": "uint256",
              "name": "dateCreated",
              "type": "uint256"
            }
          ],
          "internalType": "struct KKDEV.OrderDetails[]",
          "name": "",
          "type": "tuple[]"
        }
      ],
      "stateMutability": "view",
      "type": "function"
    },
    {
      "inputs": [],
      "name": "getAllShops",
      "outputs": [
        {
          "components": [
            {
              "internalType": "address",
              "name": "buyerAddress",
              "type": "address"
            },
            {
              "internalType": "address",
              "name": "sellerAddress",
              "type": "address"
            },
            {
              "internalType": "uint256",
              "name": "totalAmountPaid",
              "type": "uint256"
            },
            {
              "internalType": "uint256",
              "name": "orderId",
              "type": "uint256"
            },
            {
              "internalType": "string",
              "name": "transactionStatus",
              "type": "string"
            },
            {
              "internalType": "uint256",
              "name": "dateCreated",
              "type": "uint256"
            }
          ],
          "internalType": "struct KKDEV.OrderDetails",
          "name": "orderMade",
          "type": "tuple"
        }
      ],
      "stateMutability": "view",
      "type": "function"
    },
    {
      "inputs": [],
      "name": "getAvailableShops",
      "outputs": [
        {
          "components": [
            {
              "internalType": "address",
              "name": "sellerEthereumAddress",
              "type": "address"
            },
            {
              "internalType": "bytes32",
              "name": "shopPassword",
              "type": "bytes32"
            },
            {
              "internalType": "uint256",
              "name": "shopId",
              "type": "uint256"
            },
            {
              "internalType": "string",
              "name": "shopName",
              "type": "string"
            },
            {
              "internalType": "string",
              "name": "iconURL",
              "type": "string"
            },
            {
              "internalType": "uint256[]",
              "name": "userproductsId",
              "type": "uint256[]"
            },
            {
              "internalType": "string[]",
              "name": "productsURL",
              "type": "string[]"
            }
          ],
          "internalType": "struct KKDEV.Shop[]",
          "name": "shops",
          "type": "tuple[]"
        }
      ],
      "stateMutability": "view",
      "type": "function"
    },
    {
      "inputs": [],
      "name": "getOrderItem",
      "outputs": [
        {
          "components": [
            {
              "internalType": "address",
              "name": "buyerAddress",
              "type": "address"
            },
            {
              "internalType": "address",
              "name": "sellerAddress",
              "type": "address"
            },
            {
              "internalType": "uint256",
              "name": "totalAmountPaid",
              "type": "uint256"
            },
            {
              "internalType": "uint256",
              "name": "orderId",
              "type": "uint256"
            },
            {
              "internalType": "string",
              "name": "transactionStatus",
              "type": "string"
            },
            {
              "internalType": "uint256",
              "name": "dateCreated",
              "type": "uint256"
            }
          ],
          "internalType": "struct KKDEV.OrderDetails",
          "name": "orderMade",
          "type": "tuple"
        }
      ],
      "stateMutability": "view",
      "type": "function"
    },
    {
      "inputs": [
        {
          "internalType": "uint256",
          "name": "orderId",
          "type": "uint256"
        }
      ],
      "name": "getProductsForAnOrder",
      "outputs": [
        {
          "components": [
            {
              "internalType": "uint256",
              "name": "orderId",
              "type": "uint256"
            },
            {
              "internalType": "uint256",
              "name": "subTotal",
              "type": "uint256"
            },
            {
              "internalType": "uint256",
              "name": "productId",
              "type": "uint256"
            },
            {
              "internalType": "uint256",
              "name": "quantity",
              "type": "uint256"
            }
          ],
          "internalType": "struct KKDEV.ItemBought[]",
          "name": "products",
          "type": "tuple[]"
        }
      ],
      "stateMutability": "view",
      "type": "function"
    },
    {
      "inputs": [
        {
          "internalType": "address",
          "name": "userAccAddress",
          "type": "address"
        }
      ],
      "name": "getShopProducts",
      "outputs": [
        {
          "components": [
            {
              "internalType": "address",
              "name": "sellerAddress",
              "type": "address"
            },
            {
              "internalType": "string",
              "name": "productName",
              "type": "string"
            },
            {
              "internalType": "uint256",
              "name": "productQuantity",
              "type": "uint256"
            },
            {
              "internalType": "string",
              "name": "productDescription",
              "type": "string"
            },
            {
              "internalType": "uint256",
              "name": "productPrice",
              "type": "uint256"
            },
            {
              "internalType": "string[]",
              "name": "images",
              "type": "string[]"
            }
          ],
          "internalType": "struct KKDEV.Product[]",
          "name": "",
          "type": "tuple[]"
        }
      ],
      "stateMutability": "view",
      "type": "function"
    },
    {
      "inputs": [
        {
          "internalType": "address",
          "name": "sellerEthAccountAddress",
          "type": "address"
        },
        {
          "internalType": "string",
          "name": "userPassword",
          "type": "string"
        }
      ],
      "name": "logIntoMyShop",
      "outputs": [
        {
          "internalType": "string",
          "name": "shopName",
          "type": "string"
        },
        {
          "internalType": "string",
          "name": "iconUrl",
          "type": "string"
        },
        {
          "internalType": "address",
          "name": "sellerAccountAddress",
          "type": "address"
        },
        {
          "internalType": "uint256",
          "name": "shopId",
          "type": "uint256"
        }
      ],
      "stateMutability": "view",
      "type": "function"
    },
    {
      "inputs": [
        {
          "internalType": "string",
          "name": "email",
          "type": "string"
        },
        {
          "internalType": "string",
          "name": "password",
          "type": "string"
        }
      ],
      "name": "loginBuyer",
      "outputs": [
        {
          "internalType": "string",
          "name": "emailAddress",
          "type": "string"
        },
        {
          "internalType": "string",
          "name": "customerName",
          "type": "string"
        }
      ],
      "stateMutability": "view",
      "type": "function"
    },
    {
      "inputs": [
        {
          "internalType": "uint256",
          "name": "",
          "type": "uint256"
        },
        {
          "internalType": "uint256",
          "name": "",
          "type": "uint256"
        }
      ],
      "name": "orderIdtoProductsMap",
      "outputs": [
        {
          "internalType": "uint256",
          "name": "orderId",
          "type": "uint256"
        },
        {
          "internalType": "uint256",
          "name": "subTotal",
          "type": "uint256"
        },
        {
          "internalType": "uint256",
          "name": "productId",
          "type": "uint256"
        },
        {
          "internalType": "uint256",
          "name": "quantity",
          "type": "uint256"
        }
      ],
      "stateMutability": "view",
      "type": "function"
    },
    {
      "inputs": [
        {
          "internalType": "address",
          "name": "custAccountAddress",
          "type": "address"
        },
        {
          "internalType": "string",
          "name": "emailAddress",
          "type": "string"
        },
        {
          "internalType": "string",
          "name": "customerName",
          "type": "string"
        },
        {
          "internalType": "string",
          "name": "password",
          "type": "string"
        }
      ],
      "name": "registerBuyer",
      "outputs": [
        {
          "internalType": "bool",
          "name": "",
          "type": "bool"
        }
      ],
      "stateMutability": "nonpayable",
      "type": "function"
    },
    {
      "inputs": [
        {
          "internalType": "address",
          "name": "buyerAddress",
          "type": "address"
        },
        {
          "internalType": "address",
          "name": "sellerAddress",
          "type": "address"
        },
        {
          "internalType": "uint256",
          "name": "totalPaid",
          "type": "uint256"
        }
      ],
      "name": "saveOrder",
      "outputs": [
        {
          "internalType": "uint256",
          "name": "",
          "type": "uint256"
        }
      ],
      "stateMutability": "nonpayable",
      "type": "function"
    },
    {
      "inputs": [
        {
          "internalType": "uint256",
          "name": "orderId",
          "type": "uint256"
        },
        {
          "internalType": "uint256",
          "name": "subTotal",
          "type": "uint256"
        },
        {
          "internalType": "uint256",
          "name": "productId",
          "type": "uint256"
        },
        {
          "internalType": "uint256",
          "name": "quantity",
          "type": "uint256"
        }
      ],
      "name": "saveProductsForAnOrder",
      "outputs": [
        {
          "internalType": "uint256",
          "name": "",
          "type": "uint256"
        }
      ],
      "stateMutability": "nonpayable",
      "type": "function"
    },
    {
      "inputs": [
        {
          "internalType": "uint256",
          "name": "orderId",
          "type": "uint256"
        },
        {
          "internalType": "string",
          "name": "newDeliveryStatus",
          "type": "string"
        }
      ],
      "name": "updateDeliveryStatus",
      "outputs": [
        {
          "internalType": "bool",
          "name": "",
          "type": "bool"
        }
      ],
      "stateMutability": "nonpayable",
      "type": "function"
    },
    {
      "inputs": [
        {
          "internalType": "address",
          "name": "sellerAddress",
          "type": "address"
        },
        {
          "internalType": "uint256",
          "name": "productId",
          "type": "uint256"
        },
        {
          "internalType": "uint256",
          "name": "quantitySold",
          "type": "uint256"
        }
      ],
      "name": "updateProductQuantity",
      "outputs": [
        {
          "components": [
            {
              "internalType": "address",
              "name": "sellerAddress",
              "type": "address"
            },
            {
              "internalType": "string",
              "name": "productName",
              "type": "string"
            },
            {
              "internalType": "uint256",
              "name": "productQuantity",
              "type": "uint256"
            },
            {
              "internalType": "string",
              "name": "productDescription",
              "type": "string"
            },
            {
              "internalType": "uint256",
              "name": "productPrice",
              "type": "uint256"
            },
            {
              "internalType": "string[]",
              "name": "images",
              "type": "string[]"
            }
          ],
          "internalType": "struct KKDEV.Product",
          "name": "updatedProduct",
          "type": "tuple"
        }
      ],
      "stateMutability": "nonpayable",
      "type": "function"
    }
  ],
  "bytecode": "0x60806040523480156200001157600080fd5b5060405162005da638038062005da68339818101604052810190620000379190620000e8565b806000806101000a81548173ffffffffffffffffffffffffffffffffffffffff021916908373ffffffffffffffffffffffffffffffffffffffff160217905550506200011a565b600080fd5b600073ffffffffffffffffffffffffffffffffffffffff82169050919050565b6000620000b08262000083565b9050919050565b620000c281620000a3565b8114620000ce57600080fd5b50565b600081519050620000e281620000b7565b92915050565b6000602082840312156200010157620001006200007e565b5b60006200011184828501620000d1565b91505092915050565b615c7c806200012a6000396000f3fe608060405234801561001057600080fd5b50600436106101375760003560e01c8063924b21db116100b8578063cf81026d1161007c578063cf81026d146103dd578063d18516f51461040d578063d5c9b2391461043e578063dbf5f4c41461045c578063e2e31a8a1461048c578063eabe24fd146104bc57610137565b8063924b21db1461030b57806395264c93146103295780639935c4001461035c578063c553ab6d1461038f578063ce606ee0146103bf57610137565b806347580aad116100ff57806347580aad1461021a57806361c8866e1461024a578063656df9641461027a5780637f86c2d3146102ab5780638347d286146102db57610137565b8063024e5a061461013c5780630c30025c1461016c578063220e3e9a1461019c5780632698465d146101cc57806339822062146101fc575b600080fd5b610156600480360381019061015191906140f6565b6104ec565b60405161016391906143ff565b60405180910390f35b6101866004803603810190610181919061444d565b610bc6565b60405161019391906144c3565b60405180910390f35b6101b660048036038101906101b191906140f6565b610c5f565b6040516101c391906144ed565b60405180910390f35b6101e660048036038101906101e1919061456d565b610e57565b6040516101f391906145e8565b60405180910390f35b610204610f21565b604051610211919061483e565b60405180910390f35b610234600480360381019061022f9190614990565b6113fe565b60405161024191906145e8565b60405180910390f35b610264600480360381019061025f9190614a4b565b611523565b60405161027191906144c3565b60405180910390f35b610294600480360381019061028f9190614a9e565b611787565b6040516102a2929190614ba8565b60405180910390f35b6102c560048036038101906102c09190614bd8565b611bf8565b6040516102d29190614cc2565b60405180910390f35b6102f560048036038101906102f091906140f6565b611eec565b6040516103029190614e2f565b60405180910390f35b6103136121f9565b6040516103209190614eda565b60405180910390f35b610343600480360381019061033e9190614efc565b612381565b6040516103539493929190614f3c565b60405180910390f35b61037660048036038101906103719190614f81565b6123ce565b6040516103869493929190614fe1565b60405180910390f35b6103a960048036038101906103a4919061456d565b6127da565b6040516103b69190614cc2565b60405180910390f35b6103c7612bd1565b6040516103d491906144ed565b60405180910390f35b6103f760048036038101906103f29190615034565b612bf5565b60405161040491906144c3565b60405180910390f35b6104276004803603810190610422919061511f565b612fb1565b6040516104359291906151a0565b60405180910390f35b6104466132da565b6040516104539190614eda565b60405180910390f35b610476600480360381019061047191906140f6565b6132e5565b60405161048391906144ed565b60405180910390f35b6104a660048036038101906104a191906151d7565b613670565b6040516104b39190615308565b60405180910390f35b6104d660048036038101906104d191906140f6565b61370a565b6040516104e39190614e2f565b60405180910390f35b60606000600560008473ffffffffffffffffffffffffffffffffffffffff1673ffffffffffffffffffffffffffffffffffffffff1681526020019081526020016000206040518060e00160405290816000820160009054906101000a900473ffffffffffffffffffffffffffffffffffffffff1673ffffffffffffffffffffffffffffffffffffffff1673ffffffffffffffffffffffffffffffffffffffff16815260200160018201548152602001600282015481526020016003820180546105b490615359565b80601f01602080910402602001604051908101604052809291908181526020018280546105e090615359565b801561062d5780601f106106025761010080835404028352916020019161062d565b820191906000526020600020905b81548152906001019060200180831161061057829003601f168201915b5050505050815260200160048201805461064690615359565b80601f016020809104026020016040519081016040528092919081815260200182805461067290615359565b80156106bf5780601f10610694576101008083540402835291602001916106bf565b820191906000526020600020905b8154815290600101906020018083116106a257829003601f168201915b505050505081526020016005820180548060200260200160405190810160405280929190818152602001828054801561071757602002820191906000526020600020905b815481526020019060010190808311610703575b5050505050815260200160068201805480602002602001604051908101604052809291908181526020016000905b828210156107f157838290600052602060002001805461076490615359565b80601f016020809104026020016040519081016040528092919081815260200182805461079090615359565b80156107dd5780601f106107b2576101008083540402835291602001916107dd565b820191906000526020600020905b8154815290600101906020018083116107c057829003601f168201915b505050505081526020019060010190610745565b5050505081525050905060008160a0015190506000815111610848576040517f08c379a000000000000000000000000000000000000000000000000000000000815260040161083f906153d7565b60405180910390fd5b6000815167ffffffffffffffff81111561086557610864614865565b5b60405190808252806020026020018201604052801561089e57816020015b61088b613d04565b8152602001906001900390816108835790505b50905060005b8251811015610bba57600860008773ffffffffffffffffffffffffffffffffffffffff1673ffffffffffffffffffffffffffffffffffffffff1681526020019081526020016000206000848381518110610901576109006153f7565b5b602002602001015181526020019081526020016000206040518060c00160405290816000820160009054906101000a900473ffffffffffffffffffffffffffffffffffffffff1673ffffffffffffffffffffffffffffffffffffffff1673ffffffffffffffffffffffffffffffffffffffff16815260200160018201805461098890615359565b80601f01602080910402602001604051908101604052809291908181526020018280546109b490615359565b8015610a015780601f106109d657610100808354040283529160200191610a01565b820191906000526020600020905b8154815290600101906020018083116109e457829003601f168201915b5050505050815260200160028201548152602001600382018054610a2490615359565b80601f0160208091040260200160405190810160405280929190818152602001828054610a5090615359565b8015610a9d5780601f10610a7257610100808354040283529160200191610a9d565b820191906000526020600020905b815481529060010190602001808311610a8057829003601f168201915b505050505081526020016004820154815260200160058201805480602002602001604051908101604052809291908181526020016000905b82821015610b81578382906000526020600020018054610af490615359565b80601f0160208091040260200160405190810160405280929190818152602001828054610b2090615359565b8015610b6d5780601f10610b4257610100808354040283529160200191610b6d565b820191906000526020600020905b815481529060010190602001808311610b5057829003601f168201915b505050505081526020019060010190610ad5565b5050505081525050828281518110610b9c57610b9b6153f7565b5b60200260200101819052508080610bb290615455565b9150506108a4565b50809350505050919050565b60008060405180608001604052808781526020018681526020018581526020018481525090506004600087815260200190815260200160002081908060018154018082558091505060019003906000526020600020906004020160009091909190915060008201518160000155602082015181600101556040820151816002015560608201518160030155505085915050949350505050565b60008060009054906101000a900473ffffffffffffffffffffffffffffffffffffffff1673ffffffffffffffffffffffffffffffffffffffff163373ffffffffffffffffffffffffffffffffffffffff1614610cf0576040517f08c379a0000000000000000000000000000000000000000000000000000000008152600401610ce790615510565b60405180910390fd5b6000600760008473ffffffffffffffffffffffffffffffffffffffff1673ffffffffffffffffffffffffffffffffffffffff16815260200190815260200160002060009054906101000a900460ff1690508015610d7257610d71604051806060016040528060298152602001615b6060299139610d6c856132e5565b613a17565b5b600960008473ffffffffffffffffffffffffffffffffffffffff1673ffffffffffffffffffffffffffffffffffffffff168152602001908152602001600020600080820160006101000a81549073ffffffffffffffffffffffffffffffffffffffff0219169055600182016000610de99190613d50565b600282016000610df99190613d50565b60038201600090555050600b60008473ffffffffffffffffffffffffffffffffffffffff1673ffffffffffffffffffffffffffffffffffffffff1681526020019081526020016000206000610e4e9190613d90565b82915050919050565b600080600c600086815260200190815260200160002090508060010160009054906101000a900473ffffffffffffffffffffffffffffffffffffffff1673ffffffffffffffffffffffffffffffffffffffff163373ffffffffffffffffffffffffffffffffffffffff1614610f01576040517f08c379a0000000000000000000000000000000000000000000000000000000008152600401610ef8906155a2565b60405180910390fd5b8383826004019190610f14929190613db1565b5060019150509392505050565b606060006006805480602002602001604051908101604052809291908181526020018280548015610fa757602002820191906000526020600020905b8160009054906101000a900473ffffffffffffffffffffffffffffffffffffffff1673ffffffffffffffffffffffffffffffffffffffff1681526020019060010190808311610f5d575b50505050509050600060068054905011610ff6576040517f08c379a0000000000000000000000000000000000000000000000000000000008152600401610fed9061560e565b60405180910390fd5b611019604051806060016040528060218152602001615c05602191398251613ab3565b6000815167ffffffffffffffff81111561103657611035614865565b5b60405190808252806020026020018201604052801561106f57816020015b61105c613e37565b8152602001906001900390816110545790505b50905060005b82518110156113d25760056000848381518110611095576110946153f7565b5b602002602001015173ffffffffffffffffffffffffffffffffffffffff1673ffffffffffffffffffffffffffffffffffffffff1681526020019081526020016000206040518060e00160405290816000820160009054906101000a900473ffffffffffffffffffffffffffffffffffffffff1673ffffffffffffffffffffffffffffffffffffffff1673ffffffffffffffffffffffffffffffffffffffff168152602001600182015481526020016002820154815260200160038201805461115c90615359565b80601f016020809104026020016040519081016040528092919081815260200182805461118890615359565b80156111d55780601f106111aa576101008083540402835291602001916111d5565b820191906000526020600020905b8154815290600101906020018083116111b857829003601f168201915b505050505081526020016004820180546111ee90615359565b80601f016020809104026020016040519081016040528092919081815260200182805461121a90615359565b80156112675780601f1061123c57610100808354040283529160200191611267565b820191906000526020600020905b81548152906001019060200180831161124a57829003601f168201915b50505050508152602001600582018054806020026020016040519081016040528092919081815260200182805480156112bf57602002820191906000526020600020905b8154815260200190600101908083116112ab575b5050505050815260200160068201805480602002602001604051908101604052809291908181526020016000905b8282101561139957838290600052602060002001805461130c90615359565b80601f016020809104026020016040519081016040528092919081815260200182805461133890615359565b80156113855780601f1061135a57610100808354040283529160200191611385565b820191906000526020600020905b81548152906001019060200180831161136857829003601f168201915b5050505050815260200190600101906112ed565b50505050815250508282815181106113b4576113b36153f7565b5b602002602001018190525080806113ca90615455565b915050611075565b508092506113f9604051806060016040528060218152602001615c26602191398451613ab3565b505090565b60008061140a83613b4f565b9050600060405180608001604052808873ffffffffffffffffffffffffffffffffffffffff16815260200187815260200186815260200183815250905080600960008973ffffffffffffffffffffffffffffffffffffffff1673ffffffffffffffffffffffffffffffffffffffff16815260200190815260200160002060008201518160000160006101000a81548173ffffffffffffffffffffffffffffffffffffffff021916908373ffffffffffffffffffffffffffffffffffffffff16021790555060208201518160010190805190602001906114ea929190613e8d565b506040820151816002019080519060200190611507929190613e8d565b5060608201518160030155905050600192505050949350505050565b600061152f6003613b7f565b600061153b6003613b95565b905060006040518060c001604052808773ffffffffffffffffffffffffffffffffffffffff1681526020018673ffffffffffffffffffffffffffffffffffffffff1681526020018581526020018381526020016040518060400160405280600781526020017f70656e64696e6700000000000000000000000000000000000000000000000000815250815260200142815250905080600c600084815260200190815260200160002060008201518160000160006101000a81548173ffffffffffffffffffffffffffffffffffffffff021916908373ffffffffffffffffffffffffffffffffffffffff16021790555060208201518160010160006101000a81548173ffffffffffffffffffffffffffffffffffffffff021916908373ffffffffffffffffffffffffffffffffffffffff160217905550604082015181600201556060820151816003015560808201518160040190805190602001906116a1929190613e8d565b5060a08201518160050155905050600b60008773ffffffffffffffffffffffffffffffffffffffff1673ffffffffffffffffffffffffffffffffffffffff168152602001908152602001600020829080600181540180825580915050600190039060005260206000200160009091909190915055600a60008673ffffffffffffffffffffffffffffffffffffffff1673ffffffffffffffffffffffffffffffffffffffff16815260200190815260200160002082908060018154018082558091505060019003906000526020600020016000909190919091505581925050509392505050565b600060606117956001613b7f565b60006117a16001613b95565b90506117c56040518060600160405280603a8152602001615b89603a913982613ab3565b60006117d086613b4f565b905060006040518060e001604052808b73ffffffffffffffffffffffffffffffffffffffff1681526020018381526020018481526020018a8a8080601f016020809104026020016040519081016040528093929190818152602001838380828437600081840152601f19601f820116905080830192505050505050508152602001878152602001600067ffffffffffffffff81111561187257611871614865565b5b6040519080825280602002602001820160405280156118a05781602001602082028036833780820191505090505b508152602001600067ffffffffffffffff8111156118c1576118c0614865565b5b6040519080825280602002602001820160405280156118f457816020015b60608152602001906001900390816118df5790505b50815250905080600560008c73ffffffffffffffffffffffffffffffffffffffff1673ffffffffffffffffffffffffffffffffffffffff16815260200190815260200160002060008201518160000160006101000a81548173ffffffffffffffffffffffffffffffffffffffff021916908373ffffffffffffffffffffffffffffffffffffffff160217905550602082015181600101556040820151816002015560608201518160030190805190602001906119b1929190613e8d565b5060808201518160040190805190602001906119ce929190613e8d565b5060a08201518160050190805190602001906119eb929190613f13565b5060c0820151816006019080519060200190611a08929190613f60565b50905050611a706040518060600160405280603d8152602001615ac8603d9139600560008d73ffffffffffffffffffffffffffffffffffffffff1673ffffffffffffffffffffffffffffffffffffffff16815260200190815260200160002060020154613ab3565b6000600560008c73ffffffffffffffffffffffffffffffffffffffff1673ffffffffffffffffffffffffffffffffffffffff1681526020019081526020016000206002015411611af5576040517f08c379a0000000000000000000000000000000000000000000000000000000008152600401611aec9061567a565b60405180910390fd5b6001600760008c73ffffffffffffffffffffffffffffffffffffffff1673ffffffffffffffffffffffffffffffffffffffff16815260200190815260200160002060006101000a81548160ff02191690831515021790555060068a9080600181540180825580915050600190039060005260206000200160009091909190916101000a81548173ffffffffffffffffffffffffffffffffffffffff021916908373ffffffffffffffffffffffffffffffffffffffff1602179055506040518060400160405280601981526020017f53686f70207375636365737366756c6c7920637265617465640000000000000081525093508294505050509550959350505050565b611c00613d04565b6000600860008673ffffffffffffffffffffffffffffffffffffffff1673ffffffffffffffffffffffffffffffffffffffff1681526020019081526020016000206000858152602001908152602001600020905082816002016000828254611c68919061569a565b92505081905550806040518060c00160405290816000820160009054906101000a900473ffffffffffffffffffffffffffffffffffffffff1673ffffffffffffffffffffffffffffffffffffffff1673ffffffffffffffffffffffffffffffffffffffff168152602001600182018054611ce190615359565b80601f0160208091040260200160405190810160405280929190818152602001828054611d0d90615359565b8015611d5a5780601f10611d2f57610100808354040283529160200191611d5a565b820191906000526020600020905b815481529060010190602001808311611d3d57829003601f168201915b5050505050815260200160028201548152602001600382018054611d7d90615359565b80601f0160208091040260200160405190810160405280929190818152602001828054611da990615359565b8015611df65780601f10611dcb57610100808354040283529160200191611df6565b820191906000526020600020905b815481529060010190602001808311611dd957829003601f168201915b505050505081526020016004820154815260200160058201805480602002602001604051908101604052809291908181526020016000905b82821015611eda578382906000526020600020018054611e4d90615359565b80601f0160208091040260200160405190810160405280929190818152602001828054611e7990615359565b8015611ec65780601f10611e9b57610100808354040283529160200191611ec6565b820191906000526020600020905b815481529060010190602001808311611ea957829003601f168201915b505050505081526020019060010190611e2e565b50505050815250509150509392505050565b60606000600b60008473ffffffffffffffffffffffffffffffffffffffff1673ffffffffffffffffffffffffffffffffffffffff168152602001908152602001600020805480602002602001604051908101604052809291908181526020018280548015611f7957602002820191906000526020600020905b815481526020019060010190808311611f65575b505050505090506000815111611fc4576040517f08c379a0000000000000000000000000000000000000000000000000000000008152600401611fbb90615740565b60405180910390fd5b6000815167ffffffffffffffff811115611fe157611fe0614865565b5b60405190808252806020026020018201604052801561201a57816020015b612007613fc0565b815260200190600190039081611fff5790505b50905060005b82518110156121ee57600c60008483815181106120405761203f6153f7565b5b602002602001015181526020019081526020016000206040518060c00160405290816000820160009054906101000a900473ffffffffffffffffffffffffffffffffffffffff1673ffffffffffffffffffffffffffffffffffffffff1673ffffffffffffffffffffffffffffffffffffffff1681526020016001820160009054906101000a900473ffffffffffffffffffffffffffffffffffffffff1673ffffffffffffffffffffffffffffffffffffffff1673ffffffffffffffffffffffffffffffffffffffff168152602001600282015481526020016003820154815260200160048201805461213190615359565b80601f016020809104026020016040519081016040528092919081815260200182805461215d90615359565b80156121aa5780601f1061217f576101008083540402835291602001916121aa565b820191906000526020600020905b81548152906001019060200180831161218d57829003601f168201915b505050505081526020016005820154815250508282815181106121d0576121cf6153f7565b5b602002602001018190525080806121e690615455565b915050612020565b508092505050919050565b612201613fc0565b600c6000600181526020019081526020016000206040518060c00160405290816000820160009054906101000a900473ffffffffffffffffffffffffffffffffffffffff1673ffffffffffffffffffffffffffffffffffffffff1673ffffffffffffffffffffffffffffffffffffffff1681526020016001820160009054906101000a900473ffffffffffffffffffffffffffffffffffffffff1673ffffffffffffffffffffffffffffffffffffffff1673ffffffffffffffffffffffffffffffffffffffff16815260200160028201548152602001600382015481526020016004820180546122f090615359565b80601f016020809104026020016040519081016040528092919081815260200182805461231c90615359565b80156123695780601f1061233e57610100808354040283529160200191612369565b820191906000526020600020905b81548152906001019060200180831161234c57829003601f168201915b50505050508152602001600582015481525050905090565b6004602052816000526040600020818154811061239d57600080fd5b9060005260206000209060040201600091509150508060000154908060010154908060020154908060030154905084565b6060806000806123dd87613ba3565b60003390506000600560008373ffffffffffffffffffffffffffffffffffffffff1673ffffffffffffffffffffffffffffffffffffffff1681526020019081526020016000206040518060e00160405290816000820160009054906101000a900473ffffffffffffffffffffffffffffffffffffffff1673ffffffffffffffffffffffffffffffffffffffff1673ffffffffffffffffffffffffffffffffffffffff16815260200160018201548152602001600282015481526020016003820180546124a890615359565b80601f01602080910402602001604051908101604052809291908181526020018280546124d490615359565b80156125215780601f106124f657610100808354040283529160200191612521565b820191906000526020600020905b81548152906001019060200180831161250457829003601f168201915b5050505050815260200160048201805461253a90615359565b80601f016020809104026020016040519081016040528092919081815260200182805461256690615359565b80156125b35780601f10612588576101008083540402835291602001916125b3565b820191906000526020600020905b81548152906001019060200180831161259657829003601f168201915b505050505081526020016005820180548060200260200160405190810160405280929190818152602001828054801561260b57602002820191906000526020600020905b8154815260200190600101908083116125f7575b5050505050815260200160068201805480602002602001604051908101604052809291908181526020016000905b828210156126e557838290600052602060002001805461265890615359565b80601f016020809104026020016040519081016040528092919081815260200182805461268490615359565b80156126d15780601f106126a6576101008083540402835291602001916126d1565b820191906000526020600020905b8154815290600101906020018083116126b457829003601f168201915b505050505081526020019060010190612639565b505050508152505090506127156040518060800160405280605b8152602001615b05605b91398260400151613ab3565b600061276989898080601f016020809104026020016040519081016040528093929190818152602001838380828437600081840152601f19601f820116905080830192505050505050508360200151613c3c565b905060011515811515146127b2576040517f08c379a00000000000000000000000000000000000000000000000000000000081526004016127a9906157d2565b60405180910390fd5b8160600151965081608001519550816000015194508160400151935050505093509350935093565b6127e2613d04565b60011515600760003373ffffffffffffffffffffffffffffffffffffffff1673ffffffffffffffffffffffffffffffffffffffff16815260200190815260200160002060009054906101000a900460ff16151514612875576040517f08c379a000000000000000000000000000000000000000000000000000000000815260040161286c9061583e565b60405180910390fd5b6000600860003373ffffffffffffffffffffffffffffffffffffffff1673ffffffffffffffffffffffffffffffffffffffff16815260200190815260200160002060008681526020019081526020016000209050600381600501805490501115612914576040517f08c379a000000000000000000000000000000000000000000000000000000000815260040161290b906158d0565b60405180910390fd5b80600501848490918060018154018082558091505060019003906000526020600020016000909192909192909192909192509190612953929190613db1565b50806040518060c00160405290816000820160009054906101000a900473ffffffffffffffffffffffffffffffffffffffff1673ffffffffffffffffffffffffffffffffffffffff1673ffffffffffffffffffffffffffffffffffffffff1681526020016001820180546129c690615359565b80601f01602080910402602001604051908101604052809291908181526020018280546129f290615359565b8015612a3f5780601f10612a1457610100808354040283529160200191612a3f565b820191906000526020600020905b815481529060010190602001808311612a2257829003601f168201915b5050505050815260200160028201548152602001600382018054612a6290615359565b80601f0160208091040260200160405190810160405280929190818152602001828054612a8e90615359565b8015612adb5780601f10612ab057610100808354040283529160200191612adb565b820191906000526020600020905b815481529060010190602001808311612abe57829003601f168201915b505050505081526020016004820154815260200160058201805480602002602001604051908101604052809291908181526020016000905b82821015612bbf578382906000526020600020018054612b3290615359565b80601f0160208091040260200160405190810160405280929190818152602001828054612b5e90615359565b8015612bab5780601f10612b8057610100808354040283529160200191612bab565b820191906000526020600020905b815481529060010190602001808311612b8e57829003601f168201915b505050505081526020019060010190612b13565b50505050815250509150509392505050565b60008054906101000a900473ffffffffffffffffffffffffffffffffffffffff1681565b600060011515600760008b73ffffffffffffffffffffffffffffffffffffffff1673ffffffffffffffffffffffffffffffffffffffff16815260200190815260200160002060009054906101000a900460ff16151514612c8a576040517f08c379a0000000000000000000000000000000000000000000000000000000008152600401612c819061583e565b60405180910390fd5b6060612c966002613b7f565b6000612ca26002613b95565b905060006040518060c001604052808d73ffffffffffffffffffffffffffffffffffffffff1681526020018c81526020018b81526020018a8a8080601f016020809104026020016040519081016040528093929190818152602001838380828437600081840152601f19601f82011690508083019250505050505050815260200186815260200184815250905080600860008e73ffffffffffffffffffffffffffffffffffffffff1673ffffffffffffffffffffffffffffffffffffffff168152602001908152602001600020600084815260200190815260200160002060008201518160000160006101000a81548173ffffffffffffffffffffffffffffffffffffffff021916908373ffffffffffffffffffffffffffffffffffffffff1602179055506020820151816001019080519060200190612de3929190613e8d565b50604082015181600201556060820151816003019080519060200190612e0a929190613e8d565b506080820151816004015560a0820151816005019080519060200190612e31929190613f60565b509050506000600860008e73ffffffffffffffffffffffffffffffffffffffff1673ffffffffffffffffffffffffffffffffffffffff1681526020019081526020016000206000848152602001908152602001600020905080600501888890918060018154018082558091505060019003906000526020600020016000909192909192909192909192509190612ec8929190613db1565b506000600560008f73ffffffffffffffffffffffffffffffffffffffff1673ffffffffffffffffffffffffffffffffffffffff1681526020019081526020016000209050612f32604051806080016040528060428152602001615bc3604291398260020154613ab3565b8060050184908060018154018082558091505060019003906000526020600020016000909190919091505580600601898990918060018154018082558091505060019003906000526020600020016000909192909192909192909192509190612f9c929190613db1565b50839550505050505098975050505050505050565b60608060003390506000600960008373ffffffffffffffffffffffffffffffffffffffff1673ffffffffffffffffffffffffffffffffffffffff1681526020019081526020016000206040518060800160405290816000820160009054906101000a900473ffffffffffffffffffffffffffffffffffffffff1673ffffffffffffffffffffffffffffffffffffffff1673ffffffffffffffffffffffffffffffffffffffff16815260200160018201805461306b90615359565b80601f016020809104026020016040519081016040528092919081815260200182805461309790615359565b80156130e45780601f106130b9576101008083540402835291602001916130e4565b820191906000526020600020905b8154815290600101906020018083116130c757829003601f168201915b505050505081526020016002820180546130fd90615359565b80601f016020809104026020016040519081016040528092919081815260200182805461312990615359565b80156131765780601f1061314b57610100808354040283529160200191613176565b820191906000526020600020905b81548152906001019060200180831161315957829003601f168201915b505050505081526020016003820154815250509050600115156131e189898080601f016020809104026020016040519081016040528093929190818152602001838380828437600081840152601f19601f820116905080830192505050505050508360200151613c6f565b151514613223576040517f08c379a000000000000000000000000000000000000000000000000000000000815260040161321a90615962565b60405180910390fd5b600061327787878080601f016020809104026020016040519081016040528093929190818152602001838380828437600081840152601f19601f820116905080830192505050505050508360600151613c3c565b905060011515811515146132c0576040517f08c379a00000000000000000000000000000000000000000000000000000000081526004016132b7906159f4565b60405180910390fd5b816020015194508160400151935050505094509492505050565b6132e2613fc0565b90565b60008060009054906101000a900473ffffffffffffffffffffffffffffffffffffffff1673ffffffffffffffffffffffffffffffffffffffff163373ffffffffffffffffffffffffffffffffffffffff1614613376576040517f08c379a000000000000000000000000000000000000000000000000000000000815260040161336d90615510565b60405180910390fd5b600960008373ffffffffffffffffffffffffffffffffffffffff1673ffffffffffffffffffffffffffffffffffffffff168152602001908152602001600020600080820160006101000a81549073ffffffffffffffffffffffffffffffffffffffff02191690556001820160006133ed9190613d50565b6002820160006133fd9190613d50565b60038201600090555050600560008373ffffffffffffffffffffffffffffffffffffffff1673ffffffffffffffffffffffffffffffffffffffff168152602001908152602001600020600080820160006101000a81549073ffffffffffffffffffffffffffffffffffffffff02191690556001820160009055600282016000905560038201600061348e9190613d50565b60048201600061349e9190613d50565b6005820160006134ae9190613d90565b6006820160006134be9190614022565b50506000600a60008473ffffffffffffffffffffffffffffffffffffffff1673ffffffffffffffffffffffffffffffffffffffff16815260200190815260200160002080548060200260200160405190810160405280929190818152602001828054801561354b57602002820191906000526020600020905b815481526020019060010190808311613537575b505050505090506000600190505b815181101561361b57600c6000838381518110613579576135786153f7565b5b60200260200101518152602001908152602001600020600080820160006101000a81549073ffffffffffffffffffffffffffffffffffffffff02191690556001820160006101000a81549073ffffffffffffffffffffffffffffffffffffffff0219169055600282016000905560038201600090556004820160006135fe9190613d50565b60058201600090555050808061361390615455565b915050613559565b50600a60008473ffffffffffffffffffffffffffffffffffffffff1673ffffffffffffffffffffffffffffffffffffffff16815260200190815260200160002060006136679190613d90565b82915050919050565b606060046000838152602001908152602001600020805480602002602001604051908101604052809291908181526020016000905b828210156136ff5783829060005260206000209060040201604051806080016040529081600082015481526020016001820154815260200160028201548152602001600382015481525050815260200190600101906136a5565b505050509050919050565b60606000600b60008473ffffffffffffffffffffffffffffffffffffffff1673ffffffffffffffffffffffffffffffffffffffff16815260200190815260200160002080548060200260200160405190810160405280929190818152602001828054801561379757602002820191906000526020600020905b815481526020019060010190808311613783575b5050505050905060008151116137e2576040517f08c379a00000000000000000000000000000000000000000000000000000000081526004016137d990615740565b60405180910390fd5b6000815167ffffffffffffffff8111156137ff576137fe614865565b5b60405190808252806020026020018201604052801561383857816020015b613825613fc0565b81526020019060019003908161381d5790505b50905060005b8251811015613a0c57600c600084838151811061385e5761385d6153f7565b5b602002602001015181526020019081526020016000206040518060c00160405290816000820160009054906101000a900473ffffffffffffffffffffffffffffffffffffffff1673ffffffffffffffffffffffffffffffffffffffff1673ffffffffffffffffffffffffffffffffffffffff1681526020016001820160009054906101000a900473ffffffffffffffffffffffffffffffffffffffff1673ffffffffffffffffffffffffffffffffffffffff1673ffffffffffffffffffffffffffffffffffffffff168152602001600282015481526020016003820154815260200160048201805461394f90615359565b80601f016020809104026020016040519081016040528092919081815260200182805461397b90615359565b80156139c85780601f1061399d576101008083540402835291602001916139c8565b820191906000526020600020905b8154815290600101906020018083116139ab57829003601f168201915b505050505081526020016005820154815250508282815181106139ee576139ed6153f7565b5b60200260200101819052508080613a0490615455565b91505061383e565b508092505050919050565b613aaf8282604051602401613a2d929190615a14565b6040516020818303038152906040527f319af333000000000000000000000000000000000000000000000000000000007bffffffffffffffffffffffffffffffffffffffffffffffffffffffff19166020820180517bffffffffffffffffffffffffffffffffffffffffffffffffffffffff8381831617835250505050613cdb565b5050565b613b4b8282604051602401613ac9929190615a44565b6040516020818303038152906040527fb60e72cc000000000000000000000000000000000000000000000000000000007bffffffffffffffffffffffffffffffffffffffffffffffffffffffff19166020820180517bffffffffffffffffffffffffffffffffffffffffffffffffffffffff8381831617835250505050613cdb565b5050565b600081604051602001613b629190615ab0565b604051602081830303815290604052805190602001209050919050565b6001816000016000828254019250508190555050565b600081600001549050919050565b613c3981604051602401613bb791906144ed565b6040516020818303038152906040527f2c2ecbc2000000000000000000000000000000000000000000000000000000007bffffffffffffffffffffffffffffffffffffffffffffffffffffffff19166020820180517bffffffffffffffffffffffffffffffffffffffffffffffffffffffff8381831617835250505050613cdb565b50565b60008183604051602001613c509190615ab0565b6040516020818303038152906040528051906020012014905092915050565b60008151835114613c835760009050613cd5565b81604051602001613c949190615ab0565b6040516020818303038152906040528051906020012083604051602001613cbb9190615ab0565b604051602081830303815290604052805190602001201490505b92915050565b60008151905060006a636f6e736f6c652e6c6f679050602083016000808483855afa5050505050565b6040518060c00160405280600073ffffffffffffffffffffffffffffffffffffffff16815260200160608152602001600081526020016060815260200160008152602001606081525090565b508054613d5c90615359565b6000825580601f10613d6e5750613d8d565b601f016020900490600052602060002090810190613d8c9190614043565b5b50565b5080546000825590600052602060002090810190613dae9190614043565b50565b828054613dbd90615359565b90600052602060002090601f016020900481019282613ddf5760008555613e26565b82601f10613df857803560ff1916838001178555613e26565b82800160010185558215613e26579182015b82811115613e25578235825591602001919060010190613e0a565b5b509050613e339190614043565b5090565b6040518060e00160405280600073ffffffffffffffffffffffffffffffffffffffff1681526020016000801916815260200160008152602001606081526020016060815260200160608152602001606081525090565b828054613e9990615359565b90600052602060002090601f016020900481019282613ebb5760008555613f02565b82601f10613ed457805160ff1916838001178555613f02565b82800160010185558215613f02579182015b82811115613f01578251825591602001919060010190613ee6565b5b509050613f0f9190614043565b5090565b828054828255906000526020600020908101928215613f4f579160200282015b82811115613f4e578251825591602001919060010190613f33565b5b509050613f5c9190614043565b5090565b828054828255906000526020600020908101928215613faf579160200282015b82811115613fae578251829080519060200190613f9e929190613e8d565b5091602001919060010190613f80565b5b509050613fbc9190614060565b5090565b6040518060c00160405280600073ffffffffffffffffffffffffffffffffffffffff168152602001600073ffffffffffffffffffffffffffffffffffffffff168152602001600081526020016000815260200160608152602001600081525090565b50805460008255906000526020600020908101906140409190614060565b50565b5b8082111561405c576000816000905550600101614044565b5090565b5b8082111561408057600081816140779190613d50565b50600101614061565b5090565b6000604051905090565b600080fd5b600080fd5b600073ffffffffffffffffffffffffffffffffffffffff82169050919050565b60006140c382614098565b9050919050565b6140d3816140b8565b81146140de57600080fd5b50565b6000813590506140f0816140ca565b92915050565b60006020828403121561410c5761410b61408e565b5b600061411a848285016140e1565b91505092915050565b600081519050919050565b600082825260208201905092915050565b6000819050602082019050919050565b614158816140b8565b82525050565b600081519050919050565b600082825260208201905092915050565b60005b8381101561419857808201518184015260208101905061417d565b838111156141a7576000848401525b50505050565b6000601f19601f8301169050919050565b60006141c98261415e565b6141d38185614169565b93506141e381856020860161417a565b6141ec816141ad565b840191505092915050565b6000819050919050565b61420a816141f7565b82525050565b600081519050919050565b600082825260208201905092915050565b6000819050602082019050919050565b600061424883836141be565b905092915050565b6000602082019050919050565b600061426882614210565b614272818561421b565b9350836020820285016142848561422c565b8060005b858110156142c057848403895281516142a1858261423c565b94506142ac83614250565b925060208a01995050600181019050614288565b50829750879550505050505092915050565b600060c0830160008301516142ea600086018261414f565b506020830151848203602086015261430282826141be565b91505060408301516143176040860182614201565b506060830151848203606086015261432f82826141be565b91505060808301516143446080860182614201565b5060a083015184820360a086015261435c828261425d565b9150508091505092915050565b600061437583836142d2565b905092915050565b6000602082019050919050565b600061439582614123565b61439f818561412e565b9350836020820285016143b18561413f565b8060005b858110156143ed57848403895281516143ce8582614369565b94506143d98361437d565b925060208a019950506001810190506143b5565b50829750879550505050505092915050565b60006020820190508181036000830152614419818461438a565b905092915050565b61442a816141f7565b811461443557600080fd5b50565b60008135905061444781614421565b92915050565b600080600080608085870312156144675761446661408e565b5b600061447587828801614438565b945050602061448687828801614438565b935050604061449787828801614438565b92505060606144a887828801614438565b91505092959194509250565b6144bd816141f7565b82525050565b60006020820190506144d860008301846144b4565b92915050565b6144e7816140b8565b82525050565b600060208201905061450260008301846144de565b92915050565b600080fd5b600080fd5b600080fd5b60008083601f84011261452d5761452c614508565b5b8235905067ffffffffffffffff81111561454a5761454961450d565b5b60208301915083600182028301111561456657614565614512565b5b9250929050565b6000806000604084860312156145865761458561408e565b5b600061459486828701614438565b935050602084013567ffffffffffffffff8111156145b5576145b4614093565b5b6145c186828701614517565b92509250509250925092565b60008115159050919050565b6145e2816145cd565b82525050565b60006020820190506145fd60008301846145d9565b92915050565b600081519050919050565b600082825260208201905092915050565b6000819050602082019050919050565b6000819050919050565b6146428161462f565b82525050565b600081519050919050565b600082825260208201905092915050565b6000819050602082019050919050565b60006146808383614201565b60208301905092915050565b6000602082019050919050565b60006146a482614648565b6146ae8185614653565b93506146b983614664565b8060005b838110156146ea5781516146d18882614674565b97506146dc8361468c565b9250506001810190506146bd565b5085935050505092915050565b600060e08301600083015161470f600086018261414f565b5060208301516147226020860182614639565b5060408301516147356040860182614201565b506060830151848203606086015261474d82826141be565b9150506080830151848203608086015261476782826141be565b91505060a083015184820360a08601526147818282614699565b91505060c083015184820360c086015261479b828261425d565b9150508091505092915050565b60006147b483836146f7565b905092915050565b6000602082019050919050565b60006147d482614603565b6147de818561460e565b9350836020820285016147f08561461f565b8060005b8581101561482c578484038952815161480d85826147a8565b9450614818836147bc565b925060208a019950506001810190506147f4565b50829750879550505050505092915050565b6000602082019050818103600083015261485881846147c9565b905092915050565b600080fd5b7f4e487b7100000000000000000000000000000000000000000000000000000000600052604160045260246000fd5b61489d826141ad565b810181811067ffffffffffffffff821117156148bc576148bb614865565b5b80604052505050565b60006148cf614084565b90506148db8282614894565b919050565b600067ffffffffffffffff8211156148fb576148fa614865565b5b614904826141ad565b9050602081019050919050565b82818337600083830152505050565b600061493361492e846148e0565b6148c5565b90508281526020810184848401111561494f5761494e614860565b5b61495a848285614911565b509392505050565b600082601f83011261497757614976614508565b5b8135614987848260208601614920565b91505092915050565b600080600080608085870312156149aa576149a961408e565b5b60006149b8878288016140e1565b945050602085013567ffffffffffffffff8111156149d9576149d8614093565b5b6149e587828801614962565b935050604085013567ffffffffffffffff811115614a0657614a05614093565b5b614a1287828801614962565b925050606085013567ffffffffffffffff811115614a3357614a32614093565b5b614a3f87828801614962565b91505092959194509250565b600080600060608486031215614a6457614a6361408e565b5b6000614a72868287016140e1565b9350506020614a83868287016140e1565b9250506040614a9486828701614438565b9150509250925092565b600080600080600060808688031215614aba57614ab961408e565b5b6000614ac8888289016140e1565b955050602086013567ffffffffffffffff811115614ae957614ae8614093565b5b614af588828901614517565b9450945050604086013567ffffffffffffffff811115614b1857614b17614093565b5b614b2488828901614962565b925050606086013567ffffffffffffffff811115614b4557614b44614093565b5b614b5188828901614962565b9150509295509295909350565b600082825260208201905092915050565b6000614b7a8261415e565b614b848185614b5e565b9350614b9481856020860161417a565b614b9d816141ad565b840191505092915050565b6000604082019050614bbd60008301856144b4565b8181036020830152614bcf8184614b6f565b90509392505050565b600080600060608486031215614bf157614bf061408e565b5b6000614bff868287016140e1565b9350506020614c1086828701614438565b9250506040614c2186828701614438565b9150509250925092565b600060c083016000830151614c43600086018261414f565b5060208301518482036020860152614c5b82826141be565b9150506040830151614c706040860182614201565b5060608301518482036060860152614c8882826141be565b9150506080830151614c9d6080860182614201565b5060a083015184820360a0860152614cb5828261425d565b9150508091505092915050565b60006020820190508181036000830152614cdc8184614c2b565b905092915050565b600081519050919050565b600082825260208201905092915050565b6000819050602082019050919050565b600060c083016000830151614d28600086018261414f565b506020830151614d3b602086018261414f565b506040830151614d4e6040860182614201565b506060830151614d616060860182614201565b5060808301518482036080860152614d7982826141be565b91505060a0830151614d8e60a0860182614201565b508091505092915050565b6000614da58383614d10565b905092915050565b6000602082019050919050565b6000614dc582614ce4565b614dcf8185614cef565b935083602082028501614de185614d00565b8060005b85811015614e1d5784840389528151614dfe8582614d99565b9450614e0983614dad565b925060208a01995050600181019050614de5565b50829750879550505050505092915050565b60006020820190508181036000830152614e498184614dba565b905092915050565b600060c083016000830151614e69600086018261414f565b506020830151614e7c602086018261414f565b506040830151614e8f6040860182614201565b506060830151614ea26060860182614201565b5060808301518482036080860152614eba82826141be565b91505060a0830151614ecf60a0860182614201565b508091505092915050565b60006020820190508181036000830152614ef48184614e51565b905092915050565b60008060408385031215614f1357614f1261408e565b5b6000614f2185828601614438565b9250506020614f3285828601614438565b9150509250929050565b6000608082019050614f5160008301876144b4565b614f5e60208301866144b4565b614f6b60408301856144b4565b614f7860608301846144b4565b95945050505050565b600080600060408486031215614f9a57614f9961408e565b5b6000614fa8868287016140e1565b935050602084013567ffffffffffffffff811115614fc957614fc8614093565b5b614fd586828701614517565b92509250509250925092565b60006080820190508181036000830152614ffb8187614b6f565b9050818103602083015261500f8186614b6f565b905061501e60408301856144de565b61502b60608301846144b4565b95945050505050565b60008060008060008060008060c0898b0312156150545761505361408e565b5b60006150628b828c016140e1565b985050602089013567ffffffffffffffff81111561508357615082614093565b5b61508f8b828c01614962565b97505060406150a08b828c01614438565b965050606089013567ffffffffffffffff8111156150c1576150c0614093565b5b6150cd8b828c01614517565b9550955050608089013567ffffffffffffffff8111156150f0576150ef614093565b5b6150fc8b828c01614517565b935093505060a061510f8b828c01614438565b9150509295985092959890939650565b600080600080604085870312156151395761513861408e565b5b600085013567ffffffffffffffff81111561515757615156614093565b5b61516387828801614517565b9450945050602085013567ffffffffffffffff81111561518657615185614093565b5b61519287828801614517565b925092505092959194509250565b600060408201905081810360008301526151ba8185614b6f565b905081810360208301526151ce8184614b6f565b90509392505050565b6000602082840312156151ed576151ec61408e565b5b60006151fb84828501614438565b91505092915050565b600081519050919050565b600082825260208201905092915050565b6000819050602082019050919050565b6080820160008201516152466000850182614201565b5060208201516152596020850182614201565b50604082015161526c6040850182614201565b50606082015161527f6060850182614201565b50505050565b60006152918383615230565b60808301905092915050565b6000602082019050919050565b60006152b582615204565b6152bf818561520f565b93506152ca83615220565b8060005b838110156152fb5781516152e28882615285565b97506152ed8361529d565b9250506001810190506152ce565b5085935050505092915050565b6000602082019050818103600083015261532281846152aa565b905092915050565b7f4e487b7100000000000000000000000000000000000000000000000000000000600052602260045260246000fd5b6000600282049050600182168061537157607f821691505b602082108114156153855761538461532a565b5b50919050565b7f546865207573657220686173206e6f2070726f64756374732079657400000000600082015250565b60006153c1601c83614b5e565b91506153cc8261538b565b602082019050919050565b600060208201905081810360008301526153f0816153b4565b9050919050565b7f4e487b7100000000000000000000000000000000000000000000000000000000600052603260045260246000fd5b7f4e487b7100000000000000000000000000000000000000000000000000000000600052601160045260246000fd5b6000615460826141f7565b91507fffffffffffffffffffffffffffffffffffffffffffffffffffffffffffffffff82141561549357615492615426565b5b600182019050919050565b7f4f6e6c7920746865206f776e65722063616e2064656c65746520612073656c6c60008201527f6572206f7220206120627579657220726567697374657265642e202121212000602082015250565b60006154fa603f83614b5e565b91506155058261549e565b604082019050919050565b60006020820190508181036000830152615529816154ed565b9050919050565b7f4f6e792073656c6c65722063616e20757064617465207468652064656c69766560008201527f7920737461747573000000000000000000000000000000000000000000000000602082015250565b600061558c602883614b5e565b915061559782615530565b604082019050919050565b600060208201905081810360008301526155bb8161557f565b9050919050565b7f746865726520617265206e6f2073686f707320696e20746865206d61726b6574600082015250565b60006155f8602083614b5e565b9150615603826155c2565b602082019050919050565b60006020820190508181036000830152615627816155eb565b9050919050565b7f4372656174696f6e206f662073686f70206661696c6564000000000000000000600082015250565b6000615664601783614b5e565b915061566f8261562e565b602082019050919050565b6000602082019050818103600083015261569381615657565b9050919050565b60006156a5826141f7565b91506156b0836141f7565b9250828210156156c3576156c2615426565b5b828203905092915050565b7f43616e7420666574636820746865206f726465722064657461696c7320666f7260008201527f2074686973206275796572000000000000000000000000000000000000000000602082015250565b600061572a602b83614b5e565b9150615735826156ce565b604082019050919050565b600060208201905081810360008301526157598161571d565b9050919050565b7f7468652073686f7050617373776f7264202070726f7669646564206973206e6f60008201527f7420636f72726563742e00000000000000000000000000000000000000000000602082015250565b60006157bc602a83614b5e565b91506157c782615760565b604082019050919050565b600060208201905081810360008301526157eb816157af565b9050919050565b7f54686520627579657220686173206e6f2073686f702079657400000000000000600082015250565b6000615828601983614b5e565b9150615833826157f2565b602082019050919050565b600060208201905081810360008301526158578161581b565b9050919050565b7f6d6178696d756d206e756d626572206f6620696d6167657320666f722061207060008201527f726f647563742072656163686564000000000000000000000000000000000000602082015250565b60006158ba602e83614b5e565b91506158c58261585e565b604082019050919050565b600060208201905081810360008301526158e9816158ad565b9050919050565b7f54686520656d61696c20616464726573732070726f7669646564206973206e6f60008201527f7420636f72726563740000000000000000000000000000000000000000000000602082015250565b600061594c602983614b5e565b9150615957826158f0565b604082019050919050565b6000602082019050818103600083015261597b8161593f565b9050919050565b7f546865204c6f67696e207061737373776f72642070726f76696465642069732060008201527f6e6f7420636f72726563742e0000000000000000000000000000000000000000602082015250565b60006159de602c83614b5e565b91506159e982615982565b604082019050919050565b60006020820190508181036000830152615a0d816159d1565b9050919050565b60006040820190508181036000830152615a2e8185614b6f565b9050615a3d60208301846144de565b9392505050565b60006040820190508181036000830152615a5e8185614b6f565b9050615a6d60208301846144b4565b9392505050565b600081905092915050565b6000615a8a8261415e565b615a948185615a74565b9350615aa481856020860161417a565b80840191505092915050565b6000615abc8284615a7f565b91508190509291505056fe4166746572206372656174696e6720612053686f702c20746865202073686f704964206973203a3a3a3a202b2b2b2b2b2b2b2b2b2b2b2b2b2b2b3e3e3e5468652073686f7020696420696e206c6f6767696e20696e746f2073656c6c6572732073686f7020697320203a3a3a3a202b2b2b2b2b2b2b2b2b2b2b2b2b2b2b2b2b2b2b2b2b2b2b2b2b2b2b2b2b2b2b2b2b2b2b2b2b2b2b3e3e3e41646472657373206f66207468652073656c6c65722064656c65746564203a3a3a3a202d2d2d3e3e3e496e6372656d656e7465642053686f7020496420697320617320666f6c6c6f777320203a3a3a3a202b2b2b2b2b2b2b2b2b2b2b2b2b2b2b3e3e3e5468652073686f7020696420696e20616464696e672070726f6475637420746f207468652073686f70206973203a3a3a3a2b2b2b2b2b2b2b2b2b2b2b3e3e3e3e3e3e416464726573732069732068657265203a3a3a3a3a3a3a3a3d3d3d3d3d3a3a3a3a4c656e677468206973206865726520616761696e203f3f3f3f3f3f3f3f3f3f3f3fa26469706673582212200092ce50548f330e1091286898c071bef889624e44246bf87bcdc66ea750daff64736f6c63430008090033",
  "linkReferences": {},
  "deployedLinkReferences": {}
}