{
  "_format": "hh-sol-artifact-1",
  "contractName": "KKDEV",
  "sourceName": "contracts/kkdev.sol",
  "abi": [
    {
      "inputs": [
        {
          "internalType": "address",
          "name": "ownerAddress",
          "type": "address"
        }
      ],
      "stateMutability": "nonpayable",
      "type": "constructor"
    },
    {
      "inputs": [
        {
          "internalType": "uint256",
          "name": "productId",
          "type": "uint256"
        },
        {
          "internalType": "string",
          "name": "imageURL",
          "type": "string"
        }
      ],
      "name": "addImageToProduct",
      "outputs": [
        {
          "components": [
            {
              "internalType": "address",
              "name": "sellerAddress",
              "type": "address"
            },
            {
              "internalType": "string",
              "name": "productName",
              "type": "string"
            },
            {
              "internalType": "uint256",
              "name": "productQuantity",
              "type": "uint256"
            },
            {
              "internalType": "string",
              "name": "productDescription",
              "type": "string"
            },
            {
              "internalType": "uint256",
              "name": "productPrice",
              "type": "uint256"
            },
            {
              "internalType": "string[]",
              "name": "images",
              "type": "string[]"
            }
          ],
          "internalType": "struct KKDEV.Product",
          "name": "updatedProduct",
          "type": "tuple"
        }
      ],
      "stateMutability": "nonpayable",
      "type": "function"
    },
    {
      "inputs": [
        {
          "internalType": "address",
          "name": "userAccAddress",
          "type": "address"
        },
        {
          "internalType": "string",
          "name": "productName",
          "type": "string"
        },
        {
          "internalType": "uint256",
          "name": "productQuantity",
          "type": "uint256"
        },
        {
          "internalType": "string",
          "name": "productDesc",
          "type": "string"
        },
        {
          "internalType": "string",
          "name": "imageURL",
          "type": "string"
        },
        {
          "internalType": "uint256",
          "name": "productPrice",
          "type": "uint256"
        }
      ],
      "name": "addProductToShop",
      "outputs": [
        {
          "internalType": "uint256",
          "name": "prodId",
          "type": "uint256"
        }
      ],
      "stateMutability": "nonpayable",
      "type": "function"
    },
    {
      "inputs": [],
      "name": "contractOwner",
      "outputs": [
        {
          "internalType": "address",
          "name": "",
          "type": "address"
        }
      ],
      "stateMutability": "view",
      "type": "function"
    },
    {
      "inputs": [
        {
          "internalType": "address",
          "name": "sellerEthAccountAddress",
          "type": "address"
        },
        {
          "internalType": "string",
          "name": "shopName",
          "type": "string"
        },
        {
          "internalType": "string",
          "name": "shopPassword",
          "type": "string"
        },
        {
          "internalType": "string",
          "name": "iconURL",
          "type": "string"
        }
      ],
      "name": "createShop",
      "outputs": [
        {
          "internalType": "uint256",
          "name": "shopId",
          "type": "uint256"
        },
        {
          "internalType": "string",
          "name": "message",
          "type": "string"
        }
      ],
      "stateMutability": "nonpayable",
      "type": "function"
    },
    {
      "inputs": [
        {
          "internalType": "address",
          "name": "buyerAddress",
          "type": "address"
        }
      ],
      "name": "deleteBuyer",
      "outputs": [
        {
          "internalType": "address",
          "name": "deletedAddress",
          "type": "address"
        }
      ],
      "stateMutability": "nonpayable",
      "type": "function"
    },
    {
      "inputs": [
        {
          "internalType": "address",
          "name": "sellerAddress",
          "type": "address"
        }
      ],
      "name": "deleteSeller",
      "outputs": [
        {
          "internalType": "address",
          "name": "deletedAddress",
          "type": "address"
        }
      ],
      "stateMutability": "nonpayable",
      "type": "function"
    },
    {
      "inputs": [
        {
          "internalType": "address",
          "name": "_buyerAddress",
          "type": "address"
        }
      ],
      "name": "getAllBuyerOrders",
      "outputs": [
        {
          "components": [
            {
              "internalType": "address",
              "name": "buyerAddress",
              "type": "address"
            },
            {
              "internalType": "address",
              "name": "sellerAddress",
              "type": "address"
            },
            {
              "internalType": "uint256",
              "name": "totalAmountPaid",
              "type": "uint256"
            },
            {
              "internalType": "uint256",
              "name": "orderId",
              "type": "uint256"
            },
            {
              "internalType": "string",
              "name": "transactionStatus",
              "type": "string"
            },
            {
              "internalType": "uint256",
              "name": "dateCreated",
              "type": "uint256"
            }
          ],
          "internalType": "struct KKDEV.OrderDetails[]",
          "name": "",
          "type": "tuple[]"
        }
      ],
      "stateMutability": "view",
      "type": "function"
    },
    {
      "inputs": [
        {
          "internalType": "address",
          "name": "_sellerAddress",
          "type": "address"
        }
      ],
      "name": "getAllSellerOrders",
      "outputs": [
        {
          "components": [
            {
              "internalType": "address",
              "name": "buyerAddress",
              "type": "address"
            },
            {
              "internalType": "address",
              "name": "sellerAddress",
              "type": "address"
            },
            {
              "internalType": "uint256",
              "name": "totalAmountPaid",
              "type": "uint256"
            },
            {
              "internalType": "uint256",
              "name": "orderId",
              "type": "uint256"
            },
            {
              "internalType": "string",
              "name": "transactionStatus",
              "type": "string"
            },
            {
              "internalType": "uint256",
              "name": "dateCreated",
              "type": "uint256"
            }
          ],
          "internalType": "struct KKDEV.OrderDetails[]",
          "name": "",
          "type": "tuple[]"
        }
      ],
      "stateMutability": "view",
      "type": "function"
    },
    {
      "inputs": [],
      "name": "getAllShops",
      "outputs": [
        {
          "components": [
            {
              "internalType": "address",
              "name": "buyerAddress",
              "type": "address"
            },
            {
              "internalType": "address",
              "name": "sellerAddress",
              "type": "address"
            },
            {
              "internalType": "uint256",
              "name": "totalAmountPaid",
              "type": "uint256"
            },
            {
              "internalType": "uint256",
              "name": "orderId",
              "type": "uint256"
            },
            {
              "internalType": "string",
              "name": "transactionStatus",
              "type": "string"
            },
            {
              "internalType": "uint256",
              "name": "dateCreated",
              "type": "uint256"
            }
          ],
          "internalType": "struct KKDEV.OrderDetails",
          "name": "orderMade",
          "type": "tuple"
        }
      ],
      "stateMutability": "view",
      "type": "function"
    },
    {
      "inputs": [],
      "name": "getAvailableShops",
      "outputs": [
        {
          "components": [
            {
              "internalType": "address",
              "name": "sellerEthereumAddress",
              "type": "address"
            },
            {
              "internalType": "bytes32",
              "name": "shopPassword",
              "type": "bytes32"
            },
            {
              "internalType": "uint256",
              "name": "shopId",
              "type": "uint256"
            },
            {
              "internalType": "string",
              "name": "shopName",
              "type": "string"
            },
            {
              "internalType": "string",
              "name": "iconURL",
              "type": "string"
            },
            {
              "internalType": "uint256[]",
              "name": "userproductsId",
              "type": "uint256[]"
            },
            {
              "internalType": "string[]",
              "name": "productsURL",
              "type": "string[]"
            }
          ],
          "internalType": "struct KKDEV.Shop[]",
          "name": "shops",
          "type": "tuple[]"
        }
      ],
      "stateMutability": "view",
      "type": "function"
    },
    {
      "inputs": [],
      "name": "getOrderItem",
      "outputs": [
        {
          "components": [
            {
              "internalType": "address",
              "name": "buyerAddress",
              "type": "address"
            },
            {
              "internalType": "address",
              "name": "sellerAddress",
              "type": "address"
            },
            {
              "internalType": "uint256",
              "name": "totalAmountPaid",
              "type": "uint256"
            },
            {
              "internalType": "uint256",
              "name": "orderId",
              "type": "uint256"
            },
            {
              "internalType": "string",
              "name": "transactionStatus",
              "type": "string"
            },
            {
              "internalType": "uint256",
              "name": "dateCreated",
              "type": "uint256"
            }
          ],
          "internalType": "struct KKDEV.OrderDetails",
          "name": "orderMade",
          "type": "tuple"
        }
      ],
      "stateMutability": "view",
      "type": "function"
    },
    {
      "inputs": [
        {
          "internalType": "uint256",
          "name": "orderId",
          "type": "uint256"
        }
      ],
      "name": "getProductsForAnOrder",
      "outputs": [
        {
          "components": [
            {
              "internalType": "uint256",
              "name": "orderId",
              "type": "uint256"
            },
            {
              "internalType": "uint256",
              "name": "subTotal",
              "type": "uint256"
            },
            {
              "internalType": "uint256",
              "name": "productId",
              "type": "uint256"
            },
            {
              "internalType": "uint256",
              "name": "quantity",
              "type": "uint256"
            }
          ],
          "internalType": "struct KKDEV.ItemBought[]",
          "name": "products",
          "type": "tuple[]"
        }
      ],
      "stateMutability": "view",
      "type": "function"
    },
    {
      "inputs": [
        {
          "internalType": "address",
          "name": "userAccAddress",
          "type": "address"
        }
      ],
      "name": "getShopProducts",
      "outputs": [
        {
          "components": [
            {
              "internalType": "address",
              "name": "sellerAddress",
              "type": "address"
            },
            {
              "internalType": "string",
              "name": "productName",
              "type": "string"
            },
            {
              "internalType": "uint256",
              "name": "productQuantity",
              "type": "uint256"
            },
            {
              "internalType": "string",
              "name": "productDescription",
              "type": "string"
            },
            {
              "internalType": "uint256",
              "name": "productPrice",
              "type": "uint256"
            },
            {
              "internalType": "string[]",
              "name": "images",
              "type": "string[]"
            }
          ],
          "internalType": "struct KKDEV.Product[]",
          "name": "",
          "type": "tuple[]"
        }
      ],
      "stateMutability": "view",
      "type": "function"
    },
    {
      "inputs": [
        {
          "internalType": "address",
          "name": "sellerEthAccountAddress",
          "type": "address"
        },
        {
          "internalType": "string",
          "name": "userPassword",
          "type": "string"
        }
      ],
      "name": "logIntoMyShop",
      "outputs": [
        {
          "internalType": "string",
          "name": "shopName",
          "type": "string"
        },
        {
          "internalType": "string",
          "name": "iconUrl",
          "type": "string"
        },
        {
          "internalType": "address",
          "name": "sellerAccountAddress",
          "type": "address"
        },
        {
          "internalType": "uint256",
          "name": "shopId",
          "type": "uint256"
        }
      ],
      "stateMutability": "view",
      "type": "function"
    },
    {
      "inputs": [
        {
          "internalType": "string",
          "name": "email",
          "type": "string"
        },
        {
          "internalType": "string",
          "name": "password",
          "type": "string"
        }
      ],
      "name": "loginBuyer",
      "outputs": [
        {
          "internalType": "string",
          "name": "emailAddress",
          "type": "string"
        },
        {
          "internalType": "string",
          "name": "customerName",
          "type": "string"
        }
      ],
      "stateMutability": "view",
      "type": "function"
    },
    {
      "inputs": [
        {
          "internalType": "uint256",
          "name": "",
          "type": "uint256"
        },
        {
          "internalType": "uint256",
          "name": "",
          "type": "uint256"
        }
      ],
      "name": "orderIdtoProductsMap",
      "outputs": [
        {
          "internalType": "uint256",
          "name": "orderId",
          "type": "uint256"
        },
        {
          "internalType": "uint256",
          "name": "subTotal",
          "type": "uint256"
        },
        {
          "internalType": "uint256",
          "name": "productId",
          "type": "uint256"
        },
        {
          "internalType": "uint256",
          "name": "quantity",
          "type": "uint256"
        }
      ],
      "stateMutability": "view",
      "type": "function"
    },
    {
      "inputs": [
        {
          "internalType": "address",
          "name": "custAccountAddress",
          "type": "address"
        },
        {
          "internalType": "string",
          "name": "emailAddress",
          "type": "string"
        },
        {
          "internalType": "string",
          "name": "customerName",
          "type": "string"
        },
        {
          "internalType": "string",
          "name": "password",
          "type": "string"
        }
      ],
      "name": "registerBuyer",
      "outputs": [
        {
          "internalType": "bool",
          "name": "",
          "type": "bool"
        }
      ],
      "stateMutability": "nonpayable",
      "type": "function"
    },
    {
      "inputs": [
        {
          "internalType": "address",
          "name": "buyerAddress",
          "type": "address"
        },
        {
          "internalType": "address",
          "name": "sellerAddress",
          "type": "address"
        },
        {
          "internalType": "uint256",
          "name": "totalPaid",
          "type": "uint256"
        }
      ],
      "name": "saveOrder",
      "outputs": [
        {
          "internalType": "uint256",
          "name": "",
          "type": "uint256"
        }
      ],
      "stateMutability": "nonpayable",
      "type": "function"
    },
    {
      "inputs": [
        {
          "internalType": "uint256",
          "name": "orderId",
          "type": "uint256"
        },
        {
          "internalType": "uint256",
          "name": "subTotal",
          "type": "uint256"
        },
        {
          "internalType": "uint256",
          "name": "productId",
          "type": "uint256"
        },
        {
          "internalType": "uint256",
          "name": "quantity",
          "type": "uint256"
        }
      ],
      "name": "saveProductsForAnOrder",
      "outputs": [
        {
          "internalType": "uint256",
          "name": "",
          "type": "uint256"
        }
      ],
      "stateMutability": "nonpayable",
      "type": "function"
    },
    {
      "inputs": [
        {
          "internalType": "uint256",
          "name": "orderId",
          "type": "uint256"
        },
        {
          "internalType": "string",
          "name": "newDeliveryStatus",
          "type": "string"
        }
      ],
      "name": "updateDeliveryStatus",
      "outputs": [
        {
          "internalType": "bool",
          "name": "",
          "type": "bool"
        }
      ],
      "stateMutability": "nonpayable",
      "type": "function"
    },
    {
      "inputs": [
        {
          "internalType": "address",
          "name": "sellerAddress",
          "type": "address"
        },
        {
          "internalType": "uint256",
          "name": "productId",
          "type": "uint256"
        },
        {
          "internalType": "uint256",
          "name": "quantitySold",
          "type": "uint256"
        }
      ],
      "name": "updateProductQuantity",
      "outputs": [
        {
          "components": [
            {
              "internalType": "address",
              "name": "sellerAddress",
              "type": "address"
            },
            {
              "internalType": "string",
              "name": "productName",
              "type": "string"
            },
            {
              "internalType": "uint256",
              "name": "productQuantity",
              "type": "uint256"
            },
            {
              "internalType": "string",
              "name": "productDescription",
              "type": "string"
            },
            {
              "internalType": "uint256",
              "name": "productPrice",
              "type": "uint256"
            },
            {
              "internalType": "string[]",
              "name": "images",
              "type": "string[]"
            }
          ],
          "internalType": "struct KKDEV.Product",
          "name": "updatedProduct",
          "type": "tuple"
        }
      ],
      "stateMutability": "nonpayable",
      "type": "function"
    }
  ],
  "bytecode": "0x60806040523480156200001157600080fd5b5060405162005903380380620059038339818101604052810190620000379190620000e8565b806000806101000a81548173ffffffffffffffffffffffffffffffffffffffff021916908373ffffffffffffffffffffffffffffffffffffffff160217905550506200011a565b600080fd5b600073ffffffffffffffffffffffffffffffffffffffff82169050919050565b6000620000b08262000083565b9050919050565b620000c281620000a3565b8114620000ce57600080fd5b50565b600081519050620000e281620000b7565b92915050565b6000602082840312156200010157620001006200007e565b5b60006200011184828501620000d1565b91505092915050565b6157d9806200012a6000396000f3fe608060405234801561001057600080fd5b50600436106101375760003560e01c8063924b21db116100b8578063cf81026d1161007c578063cf81026d146103dd578063d18516f51461040d578063d5c9b2391461043e578063dbf5f4c41461045c578063e2e31a8a1461048c578063eabe24fd146104bc57610137565b8063924b21db1461030b57806395264c93146103295780639935c4001461035c578063c553ab6d1461038f578063ce606ee0146103bf57610137565b806347580aad116100ff57806347580aad1461021a57806361c8866e1461024a578063656df9641461027a5780637f86c2d3146102ab5780638347d286146102db57610137565b8063024e5a061461013c5780630c30025c1461016c578063220e3e9a1461019c5780632698465d146101cc57806339822062146101fc575b600080fd5b61015660048036038101906101519190613e65565b6104ec565b604051610163919061416e565b60405180910390f35b610186600480360381019061018191906141bc565b610bc6565b6040516101939190614232565b60405180910390f35b6101b660048036038101906101b19190613e65565b610c5f565b6040516101c3919061425c565b60405180910390f35b6101e660048036038101906101e191906142dc565b610e57565b6040516101f39190614357565b60405180910390f35b610204610f21565b60405161021191906145ad565b60405180910390f35b610234600480360381019061022f91906146ff565b6113fe565b6040516102419190614357565b60405180910390f35b610264600480360381019061025f91906147ba565b611523565b6040516102719190614232565b60405180910390f35b610294600480360381019061028f919061480d565b611787565b6040516102a2929190614917565b60405180910390f35b6102c560048036038101906102c09190614947565b611a5b565b6040516102d29190614a31565b60405180910390f35b6102f560048036038101906102f09190613e65565b611d4f565b6040516103029190614b9e565b60405180910390f35b61031361205c565b6040516103209190614c49565b60405180910390f35b610343600480360381019061033e9190614c6b565b6121e4565b6040516103539493929190614cab565b60405180910390f35b61037660048036038101906103719190614cf0565b612231565b6040516103869493929190614d50565b60405180910390f35b6103a960048036038101906103a491906142dc565b612608565b6040516103b69190614a31565b60405180910390f35b6103c76129ff565b6040516103d4919061425c565b60405180910390f35b6103f760048036038101906103f29190614da3565b612a23565b6040516104049190614232565b60405180910390f35b61042760048036038101906104229190614e8e565b612db9565b604051610435929190614f0f565b60405180910390f35b6104466130e2565b6040516104539190614c49565b60405180910390f35b61047660048036038101906104719190613e65565b6130ed565b604051610483919061425c565b60405180910390f35b6104a660048036038101906104a19190614f46565b613478565b6040516104b39190615077565b60405180910390f35b6104d660048036038101906104d19190613e65565b613512565b6040516104e39190614b9e565b60405180910390f35b60606000600560008473ffffffffffffffffffffffffffffffffffffffff1673ffffffffffffffffffffffffffffffffffffffff1681526020019081526020016000206040518060e00160405290816000820160009054906101000a900473ffffffffffffffffffffffffffffffffffffffff1673ffffffffffffffffffffffffffffffffffffffff1673ffffffffffffffffffffffffffffffffffffffff16815260200160018201548152602001600282015481526020016003820180546105b4906150c8565b80601f01602080910402602001604051908101604052809291908181526020018280546105e0906150c8565b801561062d5780601f106106025761010080835404028352916020019161062d565b820191906000526020600020905b81548152906001019060200180831161061057829003601f168201915b50505050508152602001600482018054610646906150c8565b80601f0160208091040260200160405190810160405280929190818152602001828054610672906150c8565b80156106bf5780601f10610694576101008083540402835291602001916106bf565b820191906000526020600020905b8154815290600101906020018083116106a257829003601f168201915b505050505081526020016005820180548060200260200160405190810160405280929190818152602001828054801561071757602002820191906000526020600020905b815481526020019060010190808311610703575b5050505050815260200160068201805480602002602001604051908101604052809291908181526020016000905b828210156107f1578382906000526020600020018054610764906150c8565b80601f0160208091040260200160405190810160405280929190818152602001828054610790906150c8565b80156107dd5780601f106107b2576101008083540402835291602001916107dd565b820191906000526020600020905b8154815290600101906020018083116107c057829003601f168201915b505050505081526020019060010190610745565b5050505081525050905060008160a0015190506000815111610848576040517f08c379a000000000000000000000000000000000000000000000000000000000815260040161083f90615146565b60405180910390fd5b6000815167ffffffffffffffff811115610865576108646145d4565b5b60405190808252806020026020018201604052801561089e57816020015b61088b613a73565b8152602001906001900390816108835790505b50905060005b8251811015610bba57600860008773ffffffffffffffffffffffffffffffffffffffff1673ffffffffffffffffffffffffffffffffffffffff168152602001908152602001600020600084838151811061090157610900615166565b5b602002602001015181526020019081526020016000206040518060c00160405290816000820160009054906101000a900473ffffffffffffffffffffffffffffffffffffffff1673ffffffffffffffffffffffffffffffffffffffff1673ffffffffffffffffffffffffffffffffffffffff168152602001600182018054610988906150c8565b80601f01602080910402602001604051908101604052809291908181526020018280546109b4906150c8565b8015610a015780601f106109d657610100808354040283529160200191610a01565b820191906000526020600020905b8154815290600101906020018083116109e457829003601f168201915b5050505050815260200160028201548152602001600382018054610a24906150c8565b80601f0160208091040260200160405190810160405280929190818152602001828054610a50906150c8565b8015610a9d5780601f10610a7257610100808354040283529160200191610a9d565b820191906000526020600020905b815481529060010190602001808311610a8057829003601f168201915b505050505081526020016004820154815260200160058201805480602002602001604051908101604052809291908181526020016000905b82821015610b81578382906000526020600020018054610af4906150c8565b80601f0160208091040260200160405190810160405280929190818152602001828054610b20906150c8565b8015610b6d5780601f10610b4257610100808354040283529160200191610b6d565b820191906000526020600020905b815481529060010190602001808311610b5057829003601f168201915b505050505081526020019060010190610ad5565b5050505081525050828281518110610b9c57610b9b615166565b5b60200260200101819052508080610bb2906151c4565b9150506108a4565b50809350505050919050565b60008060405180608001604052808781526020018681526020018581526020018481525090506004600087815260200190815260200160002081908060018154018082558091505060019003906000526020600020906004020160009091909190915060008201518160000155602082015181600101556040820151816002015560608201518160030155505085915050949350505050565b60008060009054906101000a900473ffffffffffffffffffffffffffffffffffffffff1673ffffffffffffffffffffffffffffffffffffffff163373ffffffffffffffffffffffffffffffffffffffff1614610cf0576040517f08c379a0000000000000000000000000000000000000000000000000000000008152600401610ce79061527f565b60405180910390fd5b6000600760008473ffffffffffffffffffffffffffffffffffffffff1673ffffffffffffffffffffffffffffffffffffffff16815260200190815260200160002060009054906101000a900460ff1690508015610d7257610d7160405180606001604052806029815260200161573960299139610d6c856130ed565b61381f565b5b600960008473ffffffffffffffffffffffffffffffffffffffff1673ffffffffffffffffffffffffffffffffffffffff168152602001908152602001600020600080820160006101000a81549073ffffffffffffffffffffffffffffffffffffffff0219169055600182016000610de99190613abf565b600282016000610df99190613abf565b60038201600090555050600b60008473ffffffffffffffffffffffffffffffffffffffff1673ffffffffffffffffffffffffffffffffffffffff1681526020019081526020016000206000610e4e9190613aff565b82915050919050565b600080600c600086815260200190815260200160002090508060010160009054906101000a900473ffffffffffffffffffffffffffffffffffffffff1673ffffffffffffffffffffffffffffffffffffffff163373ffffffffffffffffffffffffffffffffffffffff1614610f01576040517f08c379a0000000000000000000000000000000000000000000000000000000008152600401610ef890615311565b60405180910390fd5b8383826004019190610f14929190613b20565b5060019150509392505050565b606060006006805480602002602001604051908101604052809291908181526020018280548015610fa757602002820191906000526020600020905b8160009054906101000a900473ffffffffffffffffffffffffffffffffffffffff1673ffffffffffffffffffffffffffffffffffffffff1681526020019060010190808311610f5d575b50505050509050600060068054905011610ff6576040517f08c379a0000000000000000000000000000000000000000000000000000000008152600401610fed9061537d565b60405180910390fd5b6110196040518060600160405280602181526020016157626021913982516138bb565b6000815167ffffffffffffffff811115611036576110356145d4565b5b60405190808252806020026020018201604052801561106f57816020015b61105c613ba6565b8152602001906001900390816110545790505b50905060005b82518110156113d2576005600084838151811061109557611094615166565b5b602002602001015173ffffffffffffffffffffffffffffffffffffffff1673ffffffffffffffffffffffffffffffffffffffff1681526020019081526020016000206040518060e00160405290816000820160009054906101000a900473ffffffffffffffffffffffffffffffffffffffff1673ffffffffffffffffffffffffffffffffffffffff1673ffffffffffffffffffffffffffffffffffffffff168152602001600182015481526020016002820154815260200160038201805461115c906150c8565b80601f0160208091040260200160405190810160405280929190818152602001828054611188906150c8565b80156111d55780601f106111aa576101008083540402835291602001916111d5565b820191906000526020600020905b8154815290600101906020018083116111b857829003601f168201915b505050505081526020016004820180546111ee906150c8565b80601f016020809104026020016040519081016040528092919081815260200182805461121a906150c8565b80156112675780601f1061123c57610100808354040283529160200191611267565b820191906000526020600020905b81548152906001019060200180831161124a57829003601f168201915b50505050508152602001600582018054806020026020016040519081016040528092919081815260200182805480156112bf57602002820191906000526020600020905b8154815260200190600101908083116112ab575b5050505050815260200160068201805480602002602001604051908101604052809291908181526020016000905b8282101561139957838290600052602060002001805461130c906150c8565b80601f0160208091040260200160405190810160405280929190818152602001828054611338906150c8565b80156113855780601f1061135a57610100808354040283529160200191611385565b820191906000526020600020905b81548152906001019060200180831161136857829003601f168201915b5050505050815260200190600101906112ed565b50505050815250508282815181106113b4576113b3615166565b5b602002602001018190525080806113ca906151c4565b915050611075565b508092506113f96040518060600160405280602181526020016157836021913984516138bb565b505090565b60008061140a83613957565b9050600060405180608001604052808873ffffffffffffffffffffffffffffffffffffffff16815260200187815260200186815260200183815250905080600960008973ffffffffffffffffffffffffffffffffffffffff1673ffffffffffffffffffffffffffffffffffffffff16815260200190815260200160002060008201518160000160006101000a81548173ffffffffffffffffffffffffffffffffffffffff021916908373ffffffffffffffffffffffffffffffffffffffff16021790555060208201518160010190805190602001906114ea929190613bfc565b506040820151816002019080519060200190611507929190613bfc565b5060608201518160030155905050600192505050949350505050565b600061152f6003613987565b600061153b600361399d565b905060006040518060c001604052808773ffffffffffffffffffffffffffffffffffffffff1681526020018673ffffffffffffffffffffffffffffffffffffffff1681526020018581526020018381526020016040518060400160405280600781526020017f70656e64696e6700000000000000000000000000000000000000000000000000815250815260200142815250905080600c600084815260200190815260200160002060008201518160000160006101000a81548173ffffffffffffffffffffffffffffffffffffffff021916908373ffffffffffffffffffffffffffffffffffffffff16021790555060208201518160010160006101000a81548173ffffffffffffffffffffffffffffffffffffffff021916908373ffffffffffffffffffffffffffffffffffffffff160217905550604082015181600201556060820151816003015560808201518160040190805190602001906116a1929190613bfc565b5060a08201518160050155905050600b60008773ffffffffffffffffffffffffffffffffffffffff1673ffffffffffffffffffffffffffffffffffffffff168152602001908152602001600020829080600181540180825580915050600190039060005260206000200160009091909190915055600a60008673ffffffffffffffffffffffffffffffffffffffff1673ffffffffffffffffffffffffffffffffffffffff16815260200190815260200160002082908060018154018082558091505060019003906000526020600020016000909190919091505581925050509392505050565b600060606117956001613987565b60006117a1600161399d565b905060006117ae86613957565b905060608060006040518060e001604052808d73ffffffffffffffffffffffffffffffffffffffff1681526020018581526020018881526020018c8c8080601f016020809104026020016040519081016040528093929190818152602001838380828437600081840152601f19601f82011690508083019250505050505050815260200189815260200184815260200183815250905080600560008e73ffffffffffffffffffffffffffffffffffffffff1673ffffffffffffffffffffffffffffffffffffffff16815260200190815260200160002060008201518160000160006101000a81548173ffffffffffffffffffffffffffffffffffffffff021916908373ffffffffffffffffffffffffffffffffffffffff160217905550602082015181600101556040820151816002015560608201518160030190805190602001906118fb929190613bfc565b506080820151816004019080519060200190611918929190613bfc565b5060a0820151816005019080519060200190611935929190613c82565b5060c0820151816006019080519060200190611952929190613ccf565b509050506001600760008e73ffffffffffffffffffffffffffffffffffffffff1673ffffffffffffffffffffffffffffffffffffffff16815260200190815260200160002060006101000a81548160ff02191690831515021790555060068c9080600181540180825580915050600190039060005260206000200160009091909190916101000a81548173ffffffffffffffffffffffffffffffffffffffff021916908373ffffffffffffffffffffffffffffffffffffffff1602179055506040518060400160405280601981526020017f53686f70207375636365737366756c6c79206372656174656400000000000000815250955084965050505050509550959350505050565b611a63613a73565b6000600860008673ffffffffffffffffffffffffffffffffffffffff1673ffffffffffffffffffffffffffffffffffffffff1681526020019081526020016000206000858152602001908152602001600020905082816002016000828254611acb919061539d565b92505081905550806040518060c00160405290816000820160009054906101000a900473ffffffffffffffffffffffffffffffffffffffff1673ffffffffffffffffffffffffffffffffffffffff1673ffffffffffffffffffffffffffffffffffffffff168152602001600182018054611b44906150c8565b80601f0160208091040260200160405190810160405280929190818152602001828054611b70906150c8565b8015611bbd5780601f10611b9257610100808354040283529160200191611bbd565b820191906000526020600020905b815481529060010190602001808311611ba057829003601f168201915b5050505050815260200160028201548152602001600382018054611be0906150c8565b80601f0160208091040260200160405190810160405280929190818152602001828054611c0c906150c8565b8015611c595780601f10611c2e57610100808354040283529160200191611c59565b820191906000526020600020905b815481529060010190602001808311611c3c57829003601f168201915b505050505081526020016004820154815260200160058201805480602002602001604051908101604052809291908181526020016000905b82821015611d3d578382906000526020600020018054611cb0906150c8565b80601f0160208091040260200160405190810160405280929190818152602001828054611cdc906150c8565b8015611d295780601f10611cfe57610100808354040283529160200191611d29565b820191906000526020600020905b815481529060010190602001808311611d0c57829003601f168201915b505050505081526020019060010190611c91565b50505050815250509150509392505050565b60606000600b60008473ffffffffffffffffffffffffffffffffffffffff1673ffffffffffffffffffffffffffffffffffffffff168152602001908152602001600020805480602002602001604051908101604052809291908181526020018280548015611ddc57602002820191906000526020600020905b815481526020019060010190808311611dc8575b505050505090506000815111611e27576040517f08c379a0000000000000000000000000000000000000000000000000000000008152600401611e1e90615443565b60405180910390fd5b6000815167ffffffffffffffff811115611e4457611e436145d4565b5b604051908082528060200260200182016040528015611e7d57816020015b611e6a613d2f565b815260200190600190039081611e625790505b50905060005b825181101561205157600c6000848381518110611ea357611ea2615166565b5b602002602001015181526020019081526020016000206040518060c00160405290816000820160009054906101000a900473ffffffffffffffffffffffffffffffffffffffff1673ffffffffffffffffffffffffffffffffffffffff1673ffffffffffffffffffffffffffffffffffffffff1681526020016001820160009054906101000a900473ffffffffffffffffffffffffffffffffffffffff1673ffffffffffffffffffffffffffffffffffffffff1673ffffffffffffffffffffffffffffffffffffffff1681526020016002820154815260200160038201548152602001600482018054611f94906150c8565b80601f0160208091040260200160405190810160405280929190818152602001828054611fc0906150c8565b801561200d5780601f10611fe25761010080835404028352916020019161200d565b820191906000526020600020905b815481529060010190602001808311611ff057829003601f168201915b5050505050815260200160058201548152505082828151811061203357612032615166565b5b60200260200101819052508080612049906151c4565b915050611e83565b508092505050919050565b612064613d2f565b600c6000600181526020019081526020016000206040518060c00160405290816000820160009054906101000a900473ffffffffffffffffffffffffffffffffffffffff1673ffffffffffffffffffffffffffffffffffffffff1673ffffffffffffffffffffffffffffffffffffffff1681526020016001820160009054906101000a900473ffffffffffffffffffffffffffffffffffffffff1673ffffffffffffffffffffffffffffffffffffffff1673ffffffffffffffffffffffffffffffffffffffff1681526020016002820154815260200160038201548152602001600482018054612153906150c8565b80601f016020809104026020016040519081016040528092919081815260200182805461217f906150c8565b80156121cc5780601f106121a1576101008083540402835291602001916121cc565b820191906000526020600020905b8154815290600101906020018083116121af57829003601f168201915b50505050508152602001600582015481525050905090565b6004602052816000526040600020818154811061220057600080fd5b9060005260206000209060040201600091509150508060000154908060010154908060020154908060030154905084565b6060806000806000600560008973ffffffffffffffffffffffffffffffffffffffff1673ffffffffffffffffffffffffffffffffffffffff1681526020019081526020016000206040518060e00160405290816000820160009054906101000a900473ffffffffffffffffffffffffffffffffffffffff1673ffffffffffffffffffffffffffffffffffffffff1673ffffffffffffffffffffffffffffffffffffffff16815260200160018201548152602001600282015481526020016003820180546122fd906150c8565b80601f0160208091040260200160405190810160405280929190818152602001828054612329906150c8565b80156123765780601f1061234b57610100808354040283529160200191612376565b820191906000526020600020905b81548152906001019060200180831161235957829003601f168201915b5050505050815260200160048201805461238f906150c8565b80601f01602080910402602001604051908101604052809291908181526020018280546123bb906150c8565b80156124085780601f106123dd57610100808354040283529160200191612408565b820191906000526020600020905b8154815290600101906020018083116123eb57829003601f168201915b505050505081526020016005820180548060200260200160405190810160405280929190818152602001828054801561246057602002820191906000526020600020905b81548152602001906001019080831161244c575b5050505050815260200160068201805480602002602001604051908101604052809291908181526020016000905b8282101561253a5783829060005260206000200180546124ad906150c8565b80601f01602080910402602001604051908101604052809291908181526020018280546124d9906150c8565b80156125265780601f106124fb57610100808354040283529160200191612526565b820191906000526020600020905b81548152906001019060200180831161250957829003601f168201915b50505050508152602001906001019061248e565b50505050815250509050600061259888888080601f016020809104026020016040519081016040528093929190818152602001838380828437600081840152601f19601f8201169050808301925050505050505083602001516139ab565b905060011515811515146125e1576040517f08c379a00000000000000000000000000000000000000000000000000000000081526004016125d8906154d5565b60405180910390fd5b81606001519550816080015194508160000151935081604001519250505093509350935093565b612610613a73565b60011515600760003373ffffffffffffffffffffffffffffffffffffffff1673ffffffffffffffffffffffffffffffffffffffff16815260200190815260200160002060009054906101000a900460ff161515146126a3576040517f08c379a000000000000000000000000000000000000000000000000000000000815260040161269a90615541565b60405180910390fd5b6000600860003373ffffffffffffffffffffffffffffffffffffffff1673ffffffffffffffffffffffffffffffffffffffff16815260200190815260200160002060008681526020019081526020016000209050600381600501805490501115612742576040517f08c379a0000000000000000000000000000000000000000000000000000000008152600401612739906155d3565b60405180910390fd5b80600501848490918060018154018082558091505060019003906000526020600020016000909192909192909192909192509190612781929190613b20565b50806040518060c00160405290816000820160009054906101000a900473ffffffffffffffffffffffffffffffffffffffff1673ffffffffffffffffffffffffffffffffffffffff1673ffffffffffffffffffffffffffffffffffffffff1681526020016001820180546127f4906150c8565b80601f0160208091040260200160405190810160405280929190818152602001828054612820906150c8565b801561286d5780601f106128425761010080835404028352916020019161286d565b820191906000526020600020905b81548152906001019060200180831161285057829003601f168201915b5050505050815260200160028201548152602001600382018054612890906150c8565b80601f01602080910402602001604051908101604052809291908181526020018280546128bc906150c8565b80156129095780601f106128de57610100808354040283529160200191612909565b820191906000526020600020905b8154815290600101906020018083116128ec57829003601f168201915b505050505081526020016004820154815260200160058201805480602002602001604051908101604052809291908181526020016000905b828210156129ed578382906000526020600020018054612960906150c8565b80601f016020809104026020016040519081016040528092919081815260200182805461298c906150c8565b80156129d95780601f106129ae576101008083540402835291602001916129d9565b820191906000526020600020905b8154815290600101906020018083116129bc57829003601f168201915b505050505081526020019060010190612941565b50505050815250509150509392505050565b60008054906101000a900473ffffffffffffffffffffffffffffffffffffffff1681565b600060011515600760008b73ffffffffffffffffffffffffffffffffffffffff1673ffffffffffffffffffffffffffffffffffffffff16815260200190815260200160002060009054906101000a900460ff16151514612ab8576040517f08c379a0000000000000000000000000000000000000000000000000000000008152600401612aaf90615541565b60405180910390fd5b6060612ac46002613987565b6000612ad0600261399d565b905060006040518060c001604052808d73ffffffffffffffffffffffffffffffffffffffff1681526020018c81526020018b81526020018a8a8080601f016020809104026020016040519081016040528093929190818152602001838380828437600081840152601f19601f82011690508083019250505050505050815260200186815260200184815250905080600860008e73ffffffffffffffffffffffffffffffffffffffff1673ffffffffffffffffffffffffffffffffffffffff168152602001908152602001600020600084815260200190815260200160002060008201518160000160006101000a81548173ffffffffffffffffffffffffffffffffffffffff021916908373ffffffffffffffffffffffffffffffffffffffff1602179055506020820151816001019080519060200190612c11929190613bfc565b50604082015181600201556060820151816003019080519060200190612c38929190613bfc565b506080820151816004015560a0820151816005019080519060200190612c5f929190613ccf565b509050506000600860008e73ffffffffffffffffffffffffffffffffffffffff1673ffffffffffffffffffffffffffffffffffffffff1681526020019081526020016000206000848152602001908152602001600020905080600501888890918060018154018082558091505060019003906000526020600020016000909192909192909192909192509190612cf6929190613b20565b506000600560008f73ffffffffffffffffffffffffffffffffffffffff1673ffffffffffffffffffffffffffffffffffffffff16815260200190815260200160002090508060050184908060018154018082558091505060019003906000526020600020016000909190919091505580600601898990918060018154018082558091505060019003906000526020600020016000909192909192909192909192509190612da4929190613b20565b50839550505050505098975050505050505050565b60608060003390506000600960008373ffffffffffffffffffffffffffffffffffffffff1673ffffffffffffffffffffffffffffffffffffffff1681526020019081526020016000206040518060800160405290816000820160009054906101000a900473ffffffffffffffffffffffffffffffffffffffff1673ffffffffffffffffffffffffffffffffffffffff1673ffffffffffffffffffffffffffffffffffffffff168152602001600182018054612e73906150c8565b80601f0160208091040260200160405190810160405280929190818152602001828054612e9f906150c8565b8015612eec5780601f10612ec157610100808354040283529160200191612eec565b820191906000526020600020905b815481529060010190602001808311612ecf57829003601f168201915b50505050508152602001600282018054612f05906150c8565b80601f0160208091040260200160405190810160405280929190818152602001828054612f31906150c8565b8015612f7e5780601f10612f5357610100808354040283529160200191612f7e565b820191906000526020600020905b815481529060010190602001808311612f6157829003601f168201915b50505050508152602001600382015481525050905060011515612fe989898080601f016020809104026020016040519081016040528093929190818152602001838380828437600081840152601f19601f8201169050808301925050505050505083602001516139de565b15151461302b576040517f08c379a000000000000000000000000000000000000000000000000000000000815260040161302290615665565b60405180910390fd5b600061307f87878080601f016020809104026020016040519081016040528093929190818152602001838380828437600081840152601f19601f8201169050808301925050505050505083606001516139ab565b905060011515811515146130c8576040517f08c379a00000000000000000000000000000000000000000000000000000000081526004016130bf906154d5565b60405180910390fd5b816020015194508160400151935050505094509492505050565b6130ea613d2f565b90565b60008060009054906101000a900473ffffffffffffffffffffffffffffffffffffffff1673ffffffffffffffffffffffffffffffffffffffff163373ffffffffffffffffffffffffffffffffffffffff161461317e576040517f08c379a00000000000000000000000000000000000000000000000000000000081526004016131759061527f565b60405180910390fd5b600960008373ffffffffffffffffffffffffffffffffffffffff1673ffffffffffffffffffffffffffffffffffffffff168152602001908152602001600020600080820160006101000a81549073ffffffffffffffffffffffffffffffffffffffff02191690556001820160006131f59190613abf565b6002820160006132059190613abf565b60038201600090555050600560008373ffffffffffffffffffffffffffffffffffffffff1673ffffffffffffffffffffffffffffffffffffffff168152602001908152602001600020600080820160006101000a81549073ffffffffffffffffffffffffffffffffffffffff0219169055600182016000905560028201600090556003820160006132969190613abf565b6004820160006132a69190613abf565b6005820160006132b69190613aff565b6006820160006132c69190613d91565b50506000600a60008473ffffffffffffffffffffffffffffffffffffffff1673ffffffffffffffffffffffffffffffffffffffff16815260200190815260200160002080548060200260200160405190810160405280929190818152602001828054801561335357602002820191906000526020600020905b81548152602001906001019080831161333f575b505050505090506000600190505b815181101561342357600c600083838151811061338157613380615166565b5b60200260200101518152602001908152602001600020600080820160006101000a81549073ffffffffffffffffffffffffffffffffffffffff02191690556001820160006101000a81549073ffffffffffffffffffffffffffffffffffffffff0219169055600282016000905560038201600090556004820160006134069190613abf565b60058201600090555050808061341b906151c4565b915050613361565b50600a60008473ffffffffffffffffffffffffffffffffffffffff1673ffffffffffffffffffffffffffffffffffffffff168152602001908152602001600020600061346f9190613aff565b82915050919050565b606060046000838152602001908152602001600020805480602002602001604051908101604052809291908181526020016000905b828210156135075783829060005260206000209060040201604051806080016040529081600082015481526020016001820154815260200160028201548152602001600382015481525050815260200190600101906134ad565b505050509050919050565b60606000600b60008473ffffffffffffffffffffffffffffffffffffffff1673ffffffffffffffffffffffffffffffffffffffff16815260200190815260200160002080548060200260200160405190810160405280929190818152602001828054801561359f57602002820191906000526020600020905b81548152602001906001019080831161358b575b5050505050905060008151116135ea576040517f08c379a00000000000000000000000000000000000000000000000000000000081526004016135e190615443565b60405180910390fd5b6000815167ffffffffffffffff811115613607576136066145d4565b5b60405190808252806020026020018201604052801561364057816020015b61362d613d2f565b8152602001906001900390816136255790505b50905060005b825181101561381457600c600084838151811061366657613665615166565b5b602002602001015181526020019081526020016000206040518060c00160405290816000820160009054906101000a900473ffffffffffffffffffffffffffffffffffffffff1673ffffffffffffffffffffffffffffffffffffffff1673ffffffffffffffffffffffffffffffffffffffff1681526020016001820160009054906101000a900473ffffffffffffffffffffffffffffffffffffffff1673ffffffffffffffffffffffffffffffffffffffff1673ffffffffffffffffffffffffffffffffffffffff1681526020016002820154815260200160038201548152602001600482018054613757906150c8565b80601f0160208091040260200160405190810160405280929190818152602001828054613783906150c8565b80156137d05780601f106137a5576101008083540402835291602001916137d0565b820191906000526020600020905b8154815290600101906020018083116137b357829003601f168201915b505050505081526020016005820154815250508282815181106137f6576137f5615166565b5b6020026020010181905250808061380c906151c4565b915050613646565b508092505050919050565b6138b78282604051602401613835929190615685565b6040516020818303038152906040527f319af333000000000000000000000000000000000000000000000000000000007bffffffffffffffffffffffffffffffffffffffffffffffffffffffff19166020820180517bffffffffffffffffffffffffffffffffffffffffffffffffffffffff8381831617835250505050613a4a565b5050565b61395382826040516024016138d19291906156b5565b6040516020818303038152906040527fb60e72cc000000000000000000000000000000000000000000000000000000007bffffffffffffffffffffffffffffffffffffffffffffffffffffffff19166020820180517bffffffffffffffffffffffffffffffffffffffffffffffffffffffff8381831617835250505050613a4a565b5050565b60008160405160200161396a9190615721565b604051602081830303815290604052805190602001209050919050565b6001816000016000828254019250508190555050565b600081600001549050919050565b600081836040516020016139bf9190615721565b6040516020818303038152906040528051906020012014905092915050565b600081518351146139f25760009050613a44565b81604051602001613a039190615721565b6040516020818303038152906040528051906020012083604051602001613a2a9190615721565b604051602081830303815290604052805190602001201490505b92915050565b60008151905060006a636f6e736f6c652e6c6f679050602083016000808483855afa5050505050565b6040518060c00160405280600073ffffffffffffffffffffffffffffffffffffffff16815260200160608152602001600081526020016060815260200160008152602001606081525090565b508054613acb906150c8565b6000825580601f10613add5750613afc565b601f016020900490600052602060002090810190613afb9190613db2565b5b50565b5080546000825590600052602060002090810190613b1d9190613db2565b50565b828054613b2c906150c8565b90600052602060002090601f016020900481019282613b4e5760008555613b95565b82601f10613b6757803560ff1916838001178555613b95565b82800160010185558215613b95579182015b82811115613b94578235825591602001919060010190613b79565b5b509050613ba29190613db2565b5090565b6040518060e00160405280600073ffffffffffffffffffffffffffffffffffffffff1681526020016000801916815260200160008152602001606081526020016060815260200160608152602001606081525090565b828054613c08906150c8565b90600052602060002090601f016020900481019282613c2a5760008555613c71565b82601f10613c4357805160ff1916838001178555613c71565b82800160010185558215613c71579182015b82811115613c70578251825591602001919060010190613c55565b5b509050613c7e9190613db2565b5090565b828054828255906000526020600020908101928215613cbe579160200282015b82811115613cbd578251825591602001919060010190613ca2565b5b509050613ccb9190613db2565b5090565b828054828255906000526020600020908101928215613d1e579160200282015b82811115613d1d578251829080519060200190613d0d929190613bfc565b5091602001919060010190613cef565b5b509050613d2b9190613dcf565b5090565b6040518060c00160405280600073ffffffffffffffffffffffffffffffffffffffff168152602001600073ffffffffffffffffffffffffffffffffffffffff168152602001600081526020016000815260200160608152602001600081525090565b5080546000825590600052602060002090810190613daf9190613dcf565b50565b5b80821115613dcb576000816000905550600101613db3565b5090565b5b80821115613def5760008181613de69190613abf565b50600101613dd0565b5090565b6000604051905090565b600080fd5b600080fd5b600073ffffffffffffffffffffffffffffffffffffffff82169050919050565b6000613e3282613e07565b9050919050565b613e4281613e27565b8114613e4d57600080fd5b50565b600081359050613e5f81613e39565b92915050565b600060208284031215613e7b57613e7a613dfd565b5b6000613e8984828501613e50565b91505092915050565b600081519050919050565b600082825260208201905092915050565b6000819050602082019050919050565b613ec781613e27565b82525050565b600081519050919050565b600082825260208201905092915050565b60005b83811015613f07578082015181840152602081019050613eec565b83811115613f16576000848401525b50505050565b6000601f19601f8301169050919050565b6000613f3882613ecd565b613f428185613ed8565b9350613f52818560208601613ee9565b613f5b81613f1c565b840191505092915050565b6000819050919050565b613f7981613f66565b82525050565b600081519050919050565b600082825260208201905092915050565b6000819050602082019050919050565b6000613fb78383613f2d565b905092915050565b6000602082019050919050565b6000613fd782613f7f565b613fe18185613f8a565b935083602082028501613ff385613f9b565b8060005b8581101561402f57848403895281516140108582613fab565b945061401b83613fbf565b925060208a01995050600181019050613ff7565b50829750879550505050505092915050565b600060c0830160008301516140596000860182613ebe565b50602083015184820360208601526140718282613f2d565b91505060408301516140866040860182613f70565b506060830151848203606086015261409e8282613f2d565b91505060808301516140b36080860182613f70565b5060a083015184820360a08601526140cb8282613fcc565b9150508091505092915050565b60006140e48383614041565b905092915050565b6000602082019050919050565b600061410482613e92565b61410e8185613e9d565b93508360208202850161412085613eae565b8060005b8581101561415c578484038952815161413d85826140d8565b9450614148836140ec565b925060208a01995050600181019050614124565b50829750879550505050505092915050565b6000602082019050818103600083015261418881846140f9565b905092915050565b61419981613f66565b81146141a457600080fd5b50565b6000813590506141b681614190565b92915050565b600080600080608085870312156141d6576141d5613dfd565b5b60006141e4878288016141a7565b94505060206141f5878288016141a7565b9350506040614206878288016141a7565b9250506060614217878288016141a7565b91505092959194509250565b61422c81613f66565b82525050565b60006020820190506142476000830184614223565b92915050565b61425681613e27565b82525050565b6000602082019050614271600083018461424d565b92915050565b600080fd5b600080fd5b600080fd5b60008083601f84011261429c5761429b614277565b5b8235905067ffffffffffffffff8111156142b9576142b861427c565b5b6020830191508360018202830111156142d5576142d4614281565b5b9250929050565b6000806000604084860312156142f5576142f4613dfd565b5b6000614303868287016141a7565b935050602084013567ffffffffffffffff81111561432457614323613e02565b5b61433086828701614286565b92509250509250925092565b60008115159050919050565b6143518161433c565b82525050565b600060208201905061436c6000830184614348565b92915050565b600081519050919050565b600082825260208201905092915050565b6000819050602082019050919050565b6000819050919050565b6143b18161439e565b82525050565b600081519050919050565b600082825260208201905092915050565b6000819050602082019050919050565b60006143ef8383613f70565b60208301905092915050565b6000602082019050919050565b6000614413826143b7565b61441d81856143c2565b9350614428836143d3565b8060005b8381101561445957815161444088826143e3565b975061444b836143fb565b92505060018101905061442c565b5085935050505092915050565b600060e08301600083015161447e6000860182613ebe565b50602083015161449160208601826143a8565b5060408301516144a46040860182613f70565b50606083015184820360608601526144bc8282613f2d565b915050608083015184820360808601526144d68282613f2d565b91505060a083015184820360a08601526144f08282614408565b91505060c083015184820360c086015261450a8282613fcc565b9150508091505092915050565b60006145238383614466565b905092915050565b6000602082019050919050565b600061454382614372565b61454d818561437d565b93508360208202850161455f8561438e565b8060005b8581101561459b578484038952815161457c8582614517565b94506145878361452b565b925060208a01995050600181019050614563565b50829750879550505050505092915050565b600060208201905081810360008301526145c78184614538565b905092915050565b600080fd5b7f4e487b7100000000000000000000000000000000000000000000000000000000600052604160045260246000fd5b61460c82613f1c565b810181811067ffffffffffffffff8211171561462b5761462a6145d4565b5b80604052505050565b600061463e613df3565b905061464a8282614603565b919050565b600067ffffffffffffffff82111561466a576146696145d4565b5b61467382613f1c565b9050602081019050919050565b82818337600083830152505050565b60006146a261469d8461464f565b614634565b9050828152602081018484840111156146be576146bd6145cf565b5b6146c9848285614680565b509392505050565b600082601f8301126146e6576146e5614277565b5b81356146f684826020860161468f565b91505092915050565b6000806000806080858703121561471957614718613dfd565b5b600061472787828801613e50565b945050602085013567ffffffffffffffff81111561474857614747613e02565b5b614754878288016146d1565b935050604085013567ffffffffffffffff81111561477557614774613e02565b5b614781878288016146d1565b925050606085013567ffffffffffffffff8111156147a2576147a1613e02565b5b6147ae878288016146d1565b91505092959194509250565b6000806000606084860312156147d3576147d2613dfd565b5b60006147e186828701613e50565b93505060206147f286828701613e50565b9250506040614803868287016141a7565b9150509250925092565b60008060008060006080868803121561482957614828613dfd565b5b600061483788828901613e50565b955050602086013567ffffffffffffffff81111561485857614857613e02565b5b61486488828901614286565b9450945050604086013567ffffffffffffffff81111561488757614886613e02565b5b614893888289016146d1565b925050606086013567ffffffffffffffff8111156148b4576148b3613e02565b5b6148c0888289016146d1565b9150509295509295909350565b600082825260208201905092915050565b60006148e982613ecd565b6148f381856148cd565b9350614903818560208601613ee9565b61490c81613f1c565b840191505092915050565b600060408201905061492c6000830185614223565b818103602083015261493e81846148de565b90509392505050565b6000806000606084860312156149605761495f613dfd565b5b600061496e86828701613e50565b935050602061497f868287016141a7565b9250506040614990868287016141a7565b9150509250925092565b600060c0830160008301516149b26000860182613ebe565b50602083015184820360208601526149ca8282613f2d565b91505060408301516149df6040860182613f70565b50606083015184820360608601526149f78282613f2d565b9150506080830151614a0c6080860182613f70565b5060a083015184820360a0860152614a248282613fcc565b9150508091505092915050565b60006020820190508181036000830152614a4b818461499a565b905092915050565b600081519050919050565b600082825260208201905092915050565b6000819050602082019050919050565b600060c083016000830151614a976000860182613ebe565b506020830151614aaa6020860182613ebe565b506040830151614abd6040860182613f70565b506060830151614ad06060860182613f70565b5060808301518482036080860152614ae88282613f2d565b91505060a0830151614afd60a0860182613f70565b508091505092915050565b6000614b148383614a7f565b905092915050565b6000602082019050919050565b6000614b3482614a53565b614b3e8185614a5e565b935083602082028501614b5085614a6f565b8060005b85811015614b8c5784840389528151614b6d8582614b08565b9450614b7883614b1c565b925060208a01995050600181019050614b54565b50829750879550505050505092915050565b60006020820190508181036000830152614bb88184614b29565b905092915050565b600060c083016000830151614bd86000860182613ebe565b506020830151614beb6020860182613ebe565b506040830151614bfe6040860182613f70565b506060830151614c116060860182613f70565b5060808301518482036080860152614c298282613f2d565b91505060a0830151614c3e60a0860182613f70565b508091505092915050565b60006020820190508181036000830152614c638184614bc0565b905092915050565b60008060408385031215614c8257614c81613dfd565b5b6000614c90858286016141a7565b9250506020614ca1858286016141a7565b9150509250929050565b6000608082019050614cc06000830187614223565b614ccd6020830186614223565b614cda6040830185614223565b614ce76060830184614223565b95945050505050565b600080600060408486031215614d0957614d08613dfd565b5b6000614d1786828701613e50565b935050602084013567ffffffffffffffff811115614d3857614d37613e02565b5b614d4486828701614286565b92509250509250925092565b60006080820190508181036000830152614d6a81876148de565b90508181036020830152614d7e81866148de565b9050614d8d604083018561424d565b614d9a6060830184614223565b95945050505050565b60008060008060008060008060c0898b031215614dc357614dc2613dfd565b5b6000614dd18b828c01613e50565b985050602089013567ffffffffffffffff811115614df257614df1613e02565b5b614dfe8b828c016146d1565b9750506040614e0f8b828c016141a7565b965050606089013567ffffffffffffffff811115614e3057614e2f613e02565b5b614e3c8b828c01614286565b9550955050608089013567ffffffffffffffff811115614e5f57614e5e613e02565b5b614e6b8b828c01614286565b935093505060a0614e7e8b828c016141a7565b9150509295985092959890939650565b60008060008060408587031215614ea857614ea7613dfd565b5b600085013567ffffffffffffffff811115614ec657614ec5613e02565b5b614ed287828801614286565b9450945050602085013567ffffffffffffffff811115614ef557614ef4613e02565b5b614f0187828801614286565b925092505092959194509250565b60006040820190508181036000830152614f2981856148de565b90508181036020830152614f3d81846148de565b90509392505050565b600060208284031215614f5c57614f5b613dfd565b5b6000614f6a848285016141a7565b91505092915050565b600081519050919050565b600082825260208201905092915050565b6000819050602082019050919050565b608082016000820151614fb56000850182613f70565b506020820151614fc86020850182613f70565b506040820151614fdb6040850182613f70565b506060820151614fee6060850182613f70565b50505050565b60006150008383614f9f565b60808301905092915050565b6000602082019050919050565b600061502482614f73565b61502e8185614f7e565b935061503983614f8f565b8060005b8381101561506a5781516150518882614ff4565b975061505c8361500c565b92505060018101905061503d565b5085935050505092915050565b600060208201905081810360008301526150918184615019565b905092915050565b7f4e487b7100000000000000000000000000000000000000000000000000000000600052602260045260246000fd5b600060028204905060018216806150e057607f821691505b602082108114156150f4576150f3615099565b5b50919050565b7f546865207573657220686173206e6f2070726f64756374732079657400000000600082015250565b6000615130601c836148cd565b915061513b826150fa565b602082019050919050565b6000602082019050818103600083015261515f81615123565b9050919050565b7f4e487b7100000000000000000000000000000000000000000000000000000000600052603260045260246000fd5b7f4e487b7100000000000000000000000000000000000000000000000000000000600052601160045260246000fd5b60006151cf82613f66565b91507fffffffffffffffffffffffffffffffffffffffffffffffffffffffffffffffff82141561520257615201615195565b5b600182019050919050565b7f4f6e6c7920746865206f776e65722063616e2064656c65746520612073656c6c60008201527f6572206f7220206120627579657220726567697374657265642e202121212000602082015250565b6000615269603f836148cd565b91506152748261520d565b604082019050919050565b600060208201905081810360008301526152988161525c565b9050919050565b7f4f6e792073656c6c65722063616e20757064617465207468652064656c69766560008201527f7920737461747573000000000000000000000000000000000000000000000000602082015250565b60006152fb6028836148cd565b91506153068261529f565b604082019050919050565b6000602082019050818103600083015261532a816152ee565b9050919050565b7f746865726520617265206e6f2073686f707320696e20746865206d61726b6574600082015250565b60006153676020836148cd565b915061537282615331565b602082019050919050565b600060208201905081810360008301526153968161535a565b9050919050565b60006153a882613f66565b91506153b383613f66565b9250828210156153c6576153c5615195565b5b828203905092915050565b7f43616e7420666574636820746865206f726465722064657461696c7320666f7260008201527f2074686973206275796572000000000000000000000000000000000000000000602082015250565b600061542d602b836148cd565b9150615438826153d1565b604082019050919050565b6000602082019050818103600083015261545c81615420565b9050919050565b7f746865207061737373776f72642070726f7669646564206973206e6f7420636f60008201527f72726563742e0000000000000000000000000000000000000000000000000000602082015250565b60006154bf6026836148cd565b91506154ca82615463565b604082019050919050565b600060208201905081810360008301526154ee816154b2565b9050919050565b7f54686520627579657220686173206e6f2073686f702079657400000000000000600082015250565b600061552b6019836148cd565b9150615536826154f5565b602082019050919050565b6000602082019050818103600083015261555a8161551e565b9050919050565b7f6d6178696d756d206e756d626572206f6620696d6167657320666f722061207060008201527f726f647563742072656163686564000000000000000000000000000000000000602082015250565b60006155bd602e836148cd565b91506155c882615561565b604082019050919050565b600060208201905081810360008301526155ec816155b0565b9050919050565b7f54686520656d61696c20616464726573732070726f7669646564206973206e6f60008201527f7420636f72726563740000000000000000000000000000000000000000000000602082015250565b600061564f6029836148cd565b915061565a826155f3565b604082019050919050565b6000602082019050818103600083015261567e81615642565b9050919050565b6000604082019050818103600083015261569f81856148de565b90506156ae602083018461424d565b9392505050565b600060408201905081810360008301526156cf81856148de565b90506156de6020830184614223565b9392505050565b600081905092915050565b60006156fb82613ecd565b61570581856156e5565b9350615715818560208601613ee9565b80840191505092915050565b600061572d82846156f0565b91508190509291505056fe41646472657373206f66207468652073656c6c65722064656c65746564203a3a3a3a202d2d2d3e3e3e416464726573732069732068657265203a3a3a3a3a3a3a3a3d3d3d3d3d3a3a3a3a4c656e677468206973206865726520616761696e203f3f3f3f3f3f3f3f3f3f3f3fa264697066735822122083fce7ad033d581ca5a99ce80b45483b79c1515bde89bfec4f0bcafa74a682be64736f6c63430008090033",
  "linkReferences": {},
  "deployedLinkReferences": {}
}